{
  "_format": "hh-sol-artifact-1",
  "contractName": "RandomTextNFT",
  "sourceName": "contracts/MyEpicNFT.sol",
  "abi": [
    {
      "inputs": [],
      "stateMutability": "nonpayable",
      "type": "constructor"
    },
    {
      "anonymous": false,
      "inputs": [
        {
          "indexed": true,
          "internalType": "address",
          "name": "owner",
          "type": "address"
        },
        {
          "indexed": true,
          "internalType": "address",
          "name": "approved",
          "type": "address"
        },
        {
          "indexed": true,
          "internalType": "uint256",
          "name": "tokenId",
          "type": "uint256"
        }
      ],
      "name": "Approval",
      "type": "event"
    },
    {
      "anonymous": false,
      "inputs": [
        {
          "indexed": true,
          "internalType": "address",
          "name": "owner",
          "type": "address"
        },
        {
          "indexed": true,
          "internalType": "address",
          "name": "operator",
          "type": "address"
        },
        {
          "indexed": false,
          "internalType": "bool",
          "name": "approved",
          "type": "bool"
        }
      ],
      "name": "ApprovalForAll",
      "type": "event"
    },
    {
      "anonymous": false,
      "inputs": [
        {
          "indexed": false,
          "internalType": "address",
          "name": "sender",
          "type": "address"
        },
        {
          "indexed": false,
          "internalType": "uint256",
          "name": "tokenId",
          "type": "uint256"
        }
      ],
      "name": "NewEpicNFTMinted",
      "type": "event"
    },
    {
      "anonymous": false,
      "inputs": [
        {
          "indexed": true,
          "internalType": "address",
          "name": "previousOwner",
          "type": "address"
        },
        {
          "indexed": true,
          "internalType": "address",
          "name": "newOwner",
          "type": "address"
        }
      ],
      "name": "OwnershipTransferred",
      "type": "event"
    },
    {
      "anonymous": false,
      "inputs": [
        {
          "indexed": false,
          "internalType": "address",
          "name": "account",
          "type": "address"
        }
      ],
      "name": "Paused",
      "type": "event"
    },
    {
      "anonymous": false,
      "inputs": [
        {
          "indexed": true,
          "internalType": "address",
          "name": "from",
          "type": "address"
        },
        {
          "indexed": true,
          "internalType": "address",
          "name": "to",
          "type": "address"
        },
        {
          "indexed": true,
          "internalType": "uint256",
          "name": "tokenId",
          "type": "uint256"
        }
      ],
      "name": "Transfer",
      "type": "event"
    },
    {
      "anonymous": false,
      "inputs": [
        {
          "indexed": false,
          "internalType": "address",
          "name": "account",
          "type": "address"
        }
      ],
      "name": "Unpaused",
      "type": "event"
    },
    {
      "inputs": [
        {
          "internalType": "address",
          "name": "to",
          "type": "address"
        },
        {
          "internalType": "uint256",
          "name": "tokenId",
          "type": "uint256"
        }
      ],
      "name": "approve",
      "outputs": [],
      "stateMutability": "nonpayable",
      "type": "function"
    },
    {
      "inputs": [
        {
          "internalType": "address",
          "name": "owner",
          "type": "address"
        }
      ],
      "name": "balanceOf",
      "outputs": [
        {
          "internalType": "uint256",
          "name": "",
          "type": "uint256"
        }
      ],
      "stateMutability": "view",
      "type": "function"
    },
    {
      "inputs": [
        {
          "internalType": "uint256",
          "name": "tokenId",
          "type": "uint256"
        }
      ],
      "name": "getApproved",
      "outputs": [
        {
          "internalType": "address",
          "name": "",
          "type": "address"
        }
      ],
      "stateMutability": "view",
      "type": "function"
    },
    {
      "inputs": [
        {
          "internalType": "address",
          "name": "owner",
          "type": "address"
        },
        {
          "internalType": "address",
          "name": "operator",
          "type": "address"
        }
      ],
      "name": "isApprovedForAll",
      "outputs": [
        {
          "internalType": "bool",
          "name": "",
          "type": "bool"
        }
      ],
      "stateMutability": "view",
      "type": "function"
    },
    {
      "inputs": [],
      "name": "makeAnEpicNFT",
      "outputs": [],
      "stateMutability": "nonpayable",
      "type": "function"
    },
    {
      "inputs": [],
      "name": "name",
      "outputs": [
        {
          "internalType": "string",
          "name": "",
          "type": "string"
        }
      ],
      "stateMutability": "view",
      "type": "function"
    },
    {
      "inputs": [],
      "name": "owner",
      "outputs": [
        {
          "internalType": "address",
          "name": "",
          "type": "address"
        }
      ],
      "stateMutability": "view",
      "type": "function"
    },
    {
      "inputs": [
        {
          "internalType": "uint256",
          "name": "tokenId",
          "type": "uint256"
        }
      ],
      "name": "ownerOf",
      "outputs": [
        {
          "internalType": "address",
          "name": "",
          "type": "address"
        }
      ],
      "stateMutability": "view",
      "type": "function"
    },
    {
      "inputs": [],
      "name": "pause",
      "outputs": [],
      "stateMutability": "nonpayable",
      "type": "function"
    },
    {
      "inputs": [],
      "name": "paused",
      "outputs": [
        {
          "internalType": "bool",
          "name": "",
          "type": "bool"
        }
      ],
      "stateMutability": "view",
      "type": "function"
    },
    {
      "inputs": [
        {
          "internalType": "uint256",
          "name": "tokenId",
          "type": "uint256"
        }
      ],
      "name": "pickRandomColor",
      "outputs": [
        {
          "internalType": "string",
          "name": "",
          "type": "string"
        }
      ],
      "stateMutability": "view",
      "type": "function"
    },
    {
      "inputs": [
        {
          "internalType": "uint256",
          "name": "tokenId",
          "type": "uint256"
        }
      ],
      "name": "pickRandomFirstWord",
      "outputs": [
        {
          "internalType": "string",
          "name": "",
          "type": "string"
        }
      ],
      "stateMutability": "view",
      "type": "function"
    },
    {
      "inputs": [
        {
          "internalType": "uint256",
          "name": "tokenId",
          "type": "uint256"
        }
      ],
      "name": "pickRandomSecondWord",
      "outputs": [
        {
          "internalType": "string",
          "name": "",
          "type": "string"
        }
      ],
      "stateMutability": "view",
      "type": "function"
    },
    {
      "inputs": [
        {
          "internalType": "uint256",
          "name": "tokenId",
          "type": "uint256"
        }
      ],
      "name": "pickRandomThirdWord",
      "outputs": [
        {
          "internalType": "string",
          "name": "",
          "type": "string"
        }
      ],
      "stateMutability": "view",
      "type": "function"
    },
    {
      "inputs": [],
      "name": "renounceOwnership",
      "outputs": [],
      "stateMutability": "nonpayable",
      "type": "function"
    },
    {
      "inputs": [
        {
          "internalType": "address",
          "name": "from",
          "type": "address"
        },
        {
          "internalType": "address",
          "name": "to",
          "type": "address"
        },
        {
          "internalType": "uint256",
          "name": "tokenId",
          "type": "uint256"
        }
      ],
      "name": "safeTransferFrom",
      "outputs": [],
      "stateMutability": "nonpayable",
      "type": "function"
    },
    {
      "inputs": [
        {
          "internalType": "address",
          "name": "from",
          "type": "address"
        },
        {
          "internalType": "address",
          "name": "to",
          "type": "address"
        },
        {
          "internalType": "uint256",
          "name": "tokenId",
          "type": "uint256"
        },
        {
          "internalType": "bytes",
          "name": "_data",
          "type": "bytes"
        }
      ],
      "name": "safeTransferFrom",
      "outputs": [],
      "stateMutability": "nonpayable",
      "type": "function"
    },
    {
      "inputs": [
        {
          "internalType": "address",
          "name": "operator",
          "type": "address"
        },
        {
          "internalType": "bool",
          "name": "approved",
          "type": "bool"
        }
      ],
      "name": "setApprovalForAll",
      "outputs": [],
      "stateMutability": "nonpayable",
      "type": "function"
    },
    {
      "inputs": [
        {
          "internalType": "bytes4",
          "name": "interfaceId",
          "type": "bytes4"
        }
      ],
      "name": "supportsInterface",
      "outputs": [
        {
          "internalType": "bool",
          "name": "",
          "type": "bool"
        }
      ],
      "stateMutability": "view",
      "type": "function"
    },
    {
      "inputs": [],
      "name": "symbol",
      "outputs": [
        {
          "internalType": "string",
          "name": "",
          "type": "string"
        }
      ],
      "stateMutability": "view",
      "type": "function"
    },
    {
      "inputs": [
        {
          "internalType": "uint256",
          "name": "tokenId",
          "type": "uint256"
        }
      ],
      "name": "tokenURI",
      "outputs": [
        {
          "internalType": "string",
          "name": "",
          "type": "string"
        }
      ],
      "stateMutability": "view",
      "type": "function"
    },
    {
      "inputs": [
        {
          "internalType": "address",
          "name": "from",
          "type": "address"
        },
        {
          "internalType": "address",
          "name": "to",
          "type": "address"
        },
        {
          "internalType": "uint256",
          "name": "tokenId",
          "type": "uint256"
        }
      ],
      "name": "transferFrom",
      "outputs": [],
      "stateMutability": "nonpayable",
      "type": "function"
    },
    {
      "inputs": [
        {
          "internalType": "address",
          "name": "newOwner",
          "type": "address"
        }
      ],
      "name": "transferOwnership",
      "outputs": [],
      "stateMutability": "nonpayable",
      "type": "function"
    },
    {
      "inputs": [],
      "name": "unpause",
      "outputs": [],
      "stateMutability": "nonpayable",
      "type": "function"
    }
  ],
  "bytecode": "0x608060405260405180610100016040528060d3815260200162004e6d60d39139600990805190602001906200003692919062000935565b5060405180608001604052806056815260200162004f4060569139600a90805190602001906200006892919062000935565b506040518060c001604052806040518060400160405280600681526020017f59656c6c6f77000000000000000000000000000000000000000000000000000081525081526020016040518060400160405280600381526020017f526564000000000000000000000000000000000000000000000000000000000081525081526020016040518060400160405280600481526020017f50696e6b0000000000000000000000000000000000000000000000000000000081525081526020016040518060400160405280600581526020017f426c61636b00000000000000000000000000000000000000000000000000000081525081526020016040518060400160405280600481526020017f426c75650000000000000000000000000000000000000000000000000000000081525081526020016040518060400160405280600581526020017f477265656e000000000000000000000000000000000000000000000000000000815250815250600b906006620001e6929190620009c6565b506040518060c001604052806040518060400160405280600381526020017f466174000000000000000000000000000000000000000000000000000000000081525081526020016040518060400160405280600681526020017f536b696e6e79000000000000000000000000000000000000000000000000000081525081526020016040518060400160405280600481526020017f536c696d0000000000000000000000000000000000000000000000000000000081525081526020016040518060400160405280600581526020017f53686f727400000000000000000000000000000000000000000000000000000081525081526020016040518060400160405280600481526020017f54616c6c0000000000000000000000000000000000000000000000000000000081525081526020016040518060400160405280600381526020017f4669740000000000000000000000000000000000000000000000000000000000815250815250600c90600662000364929190620009c6565b506040518060c001604052806040518060400160405280600381526020017f477579000000000000000000000000000000000000000000000000000000000081525081526020016040518060400160405280600481526020017f4c6164790000000000000000000000000000000000000000000000000000000081525081526020016040518060400160405280600481526020017f536869740000000000000000000000000000000000000000000000000000000081525081526020016040518060400160405280600381526020017f536972000000000000000000000000000000000000000000000000000000000081525081526020016040518060400160405280600381526020017f4b6964000000000000000000000000000000000000000000000000000000000081525081526020016040518060400160405280600381526020017f4170650000000000000000000000000000000000000000000000000000000000815250815250600d906006620004e2929190620009c6565b506040518060c001604052806040518060400160405280600381526020017f726564000000000000000000000000000000000000000000000000000000000081525081526020016040518060400160405280600781526020017f233038433241380000000000000000000000000000000000000000000000000081525081526020016040518060400160405280600581526020017f626c61636b00000000000000000000000000000000000000000000000000000081525081526020016040518060400160405280600681526020017f79656c6c6f77000000000000000000000000000000000000000000000000000081525081526020016040518060400160405280600481526020017f626c75650000000000000000000000000000000000000000000000000000000081525081526020016040518060400160405280600581526020017f677265656e000000000000000000000000000000000000000000000000000000815250815250600e90600662000660929190620009c6565b503480156200066e57600080fd5b506040518060400160405280600d81526020017f52616e646f6d546578744e4654000000000000000000000000000000000000008152506040518060400160405280600581526020017f52544e46540000000000000000000000000000000000000000000000000000008152508160009080519060200190620006f392919062000935565b5080600190805190602001906200070c92919062000935565b5050506000600760006101000a81548160ff0219169083151502179055506200074a6200073e6200079b60201b60201c565b620007a360201b60201c565b620007956040518060400160405280601f81526020017f52616e646f6d546578744e465420636f6e7472616374206465706c6f796564008152506200086960201b620016151760201c565b62000be7565b600033905090565b6000600760019054906101000a900473ffffffffffffffffffffffffffffffffffffffff16905081600760016101000a81548173ffffffffffffffffffffffffffffffffffffffff021916908373ffffffffffffffffffffffffffffffffffffffff1602179055508173ffffffffffffffffffffffffffffffffffffffff168173ffffffffffffffffffffffffffffffffffffffff167f8be0079c531659141344cd1fd0a4f28419497f9722a3daafe3b4186f6b6457e060405160405180910390a35050565b620009098160405160240162000880919062000afb565b6040516020818303038152906040527f41304fac000000000000000000000000000000000000000000000000000000007bffffffffffffffffffffffffffffffffffffffffffffffffffffffff19166020820180517bffffffffffffffffffffffffffffffffffffffffffffffffffffffff83818316178352505050506200090c60201b60201c565b50565b60008151905060006a636f6e736f6c652e6c6f679050602083016000808483855afa5050505050565b828054620009439062000b71565b90600052602060002090601f016020900481019282620009675760008555620009b3565b82601f106200098257805160ff1916838001178555620009b3565b82800160010185558215620009b3579182015b82811115620009b257825182559160200191906001019062000995565b5b509050620009c2919062000a2d565b5090565b82805482825590600052602060002090810192821562000a1a579160200282015b8281111562000a1957825182908051906020019062000a0892919062000935565b5091602001919060010190620009e7565b5b50905062000a29919062000a4c565b5090565b5b8082111562000a4857600081600090555060010162000a2e565b5090565b5b8082111562000a70576000818162000a66919062000a74565b5060010162000a4d565b5090565b50805462000a829062000b71565b6000825580601f1062000a96575062000ab7565b601f01602090049060005260206000209081019062000ab6919062000a2d565b5b50565b600062000ac78262000b1f565b62000ad3818562000b2a565b935062000ae581856020860162000b3b565b62000af08162000bd6565b840191505092915050565b6000602082019050818103600083015262000b17818462000aba565b905092915050565b600081519050919050565b600082825260208201905092915050565b60005b8381101562000b5b57808201518184015260208101905062000b3e565b8381111562000b6b576000848401525b50505050565b6000600282049050600182168062000b8a57607f821691505b6020821081141562000ba15762000ba062000ba7565b5b50919050565b7f4e487b7100000000000000000000000000000000000000000000000000000000600052602260045260246000fd5b6000601f19601f8301169050919050565b6142768062000bf76000396000f3fe608060405234801561001057600080fd5b50600436106101585760003560e01c8063715018a6116100c3578063b88d4fde1161007c578063b88d4fde146103b3578063c575757a146103cf578063c87b56dd146103ff578063de9d132f1461042f578063e985e9c514610439578063f2fde38b1461046957610158565b8063715018a6146103175780638456cb59146103215780638da5cb5b1461032b57806395d89b4114610349578063a22cb46514610367578063b187301f1461038357610158565b80633f4ba83a116101155780633f4ba83a1461024357806342842e0e1461024d578063514dc8c6146102695780635c975abb146102995780636352211e146102b757806370a08231146102e757610158565b806301ffc9a71461015d57806306fdde031461018d578063081812fc146101ab578063095ea7b3146101db57806323b872dd146101f75780632de38d6814610213575b600080fd5b61017760048036038101906101729190612c20565b610485565b6040516101849190613a6c565b60405180910390f35b610195610567565b6040516101a29190613a87565b60405180910390f35b6101c560048036038101906101c09190612c72565b6105f9565b6040516101d291906139dc565b60405180910390f35b6101f560048036038101906101f09190612be4565b61067e565b005b610211600480360381019061020c9190612ade565b610796565b005b61022d60048036038101906102289190612c72565b6107f6565b60405161023a9190613a87565b60405180910390f35b61024b610914565b005b61026760048036038101906102629190612ade565b61099a565b005b610283600480360381019061027e9190612c72565b6109ba565b6040516102909190613a87565b60405180910390f35b6102a1610ad8565b6040516102ae9190613a6c565b60405180910390f35b6102d160048036038101906102cc9190612c72565b610aef565b6040516102de91906139dc565b60405180910390f35b61030160048036038101906102fc9190612a79565b610ba1565b60405161030e9190613d67565b60405180910390f35b61031f610c59565b005b610329610ce1565b005b610333610d67565b60405161034091906139dc565b60405180910390f35b610351610d91565b60405161035e9190613a87565b60405180910390f35b610381600480360381019061037c9190612ba8565b610e23565b005b61039d60048036038101906103989190612c72565b610e39565b6040516103aa9190613a87565b60405180910390f35b6103cd60048036038101906103c89190612b2d565b610f57565b005b6103e960048036038101906103e49190612c72565b610fb9565b6040516103f69190613a87565b60405180910390f35b61041960048036038101906104149190612c72565b6110d7565b6040516104269190613a87565b60405180910390f35b610437611229565b005b610453600480360381019061044e9190612aa2565b611489565b6040516104609190613a6c565b60405180910390f35b610483600480360381019061047e9190612a79565b61151d565b005b60007f80ac58cd000000000000000000000000000000000000000000000000000000007bffffffffffffffffffffffffffffffffffffffffffffffffffffffff1916827bffffffffffffffffffffffffffffffffffffffffffffffffffffffff1916148061055057507f5b5e139f000000000000000000000000000000000000000000000000000000007bffffffffffffffffffffffffffffffffffffffffffffffffffffffff1916827bffffffffffffffffffffffffffffffffffffffffffffffffffffffff1916145b80610560575061055f826116ae565b5b9050919050565b60606000805461057690614006565b80601f01602080910402602001604051908101604052809291908181526020018280546105a290614006565b80156105ef5780601f106105c4576101008083540402835291602001916105ef565b820191906000526020600020905b8154815290600101906020018083116105d257829003601f168201915b5050505050905090565b600061060482611718565b610643576040517f08c379a000000000000000000000000000000000000000000000000000000000815260040161063a90613ca7565b60405180910390fd5b6004600083815260200190815260200160002060009054906101000a900473ffffffffffffffffffffffffffffffffffffffff169050919050565b600061068982610aef565b90508073ffffffffffffffffffffffffffffffffffffffff168373ffffffffffffffffffffffffffffffffffffffff1614156106fa576040517f08c379a00000000000000000000000000000000000000000000000000000000081526004016106f190613d27565b60405180910390fd5b8073ffffffffffffffffffffffffffffffffffffffff16610719611784565b73ffffffffffffffffffffffffffffffffffffffff161480610748575061074781610742611784565b611489565b5b610787576040517f08c379a000000000000000000000000000000000000000000000000000000000815260040161077e90613be7565b60405180910390fd5b610791838361178c565b505050565b6107a76107a1611784565b82611845565b6107e6576040517f08c379a00000000000000000000000000000000000000000000000000000000081526004016107dd90613d47565b60405180910390fd5b6107f1838383611923565b505050565b6060600061082a61080684611b7f565b6040516020016108169190613976565b604051602081830303815290604052611d2c565b9050600b805490508161083d9190614081565b9050600b8181548110610879577f4e487b7100000000000000000000000000000000000000000000000000000000600052603260045260246000fd5b90600052602060002001805461088e90614006565b80601f01602080910402602001604051908101604052809291908181526020018280546108ba90614006565b80156109075780601f106108dc57610100808354040283529160200191610907565b820191906000526020600020905b8154815290600101906020018083116108ea57829003601f168201915b5050505050915050919050565b61091c611784565b73ffffffffffffffffffffffffffffffffffffffff1661093a610d67565b73ffffffffffffffffffffffffffffffffffffffff1614610990576040517f08c379a000000000000000000000000000000000000000000000000000000000815260040161098790613cc7565b60405180910390fd5b610998611d5f565b565b6109b583838360405180602001604052806000815250610f57565b505050565b606060006109ee6109ca84611b7f565b6040516020016109da91906139ba565b604051602081830303815290604052611d2c565b9050600e8054905081610a019190614081565b9050600e8181548110610a3d577f4e487b7100000000000000000000000000000000000000000000000000000000600052603260045260246000fd5b906000526020600020018054610a5290614006565b80601f0160208091040260200160405190810160405280929190818152602001828054610a7e90614006565b8015610acb5780601f10610aa057610100808354040283529160200191610acb565b820191906000526020600020905b815481529060010190602001808311610aae57829003601f168201915b5050505050915050919050565b6000600760009054906101000a900460ff16905090565b6000806002600084815260200190815260200160002060009054906101000a900473ffffffffffffffffffffffffffffffffffffffff169050600073ffffffffffffffffffffffffffffffffffffffff168173ffffffffffffffffffffffffffffffffffffffff161415610b98576040517f08c379a0000000000000000000000000000000000000000000000000000000008152600401610b8f90613c27565b60405180910390fd5b80915050919050565b60008073ffffffffffffffffffffffffffffffffffffffff168273ffffffffffffffffffffffffffffffffffffffff161415610c12576040517f08c379a0000000000000000000000000000000000000000000000000000000008152600401610c0990613c07565b60405180910390fd5b600360008373ffffffffffffffffffffffffffffffffffffffff1673ffffffffffffffffffffffffffffffffffffffff168152602001908152602001600020549050919050565b610c61611784565b73ffffffffffffffffffffffffffffffffffffffff16610c7f610d67565b73ffffffffffffffffffffffffffffffffffffffff1614610cd5576040517f08c379a0000000000000000000000000000000000000000000000000000000008152600401610ccc90613cc7565b60405180910390fd5b610cdf6000611e01565b565b610ce9611784565b73ffffffffffffffffffffffffffffffffffffffff16610d07610d67565b73ffffffffffffffffffffffffffffffffffffffff1614610d5d576040517f08c379a0000000000000000000000000000000000000000000000000000000008152600401610d5490613cc7565b60405180910390fd5b610d65611ec7565b565b6000600760019054906101000a900473ffffffffffffffffffffffffffffffffffffffff16905090565b606060018054610da090614006565b80601f0160208091040260200160405190810160405280929190818152602001828054610dcc90614006565b8015610e195780601f10610dee57610100808354040283529160200191610e19565b820191906000526020600020905b815481529060010190602001808311610dfc57829003601f168201915b5050505050905090565b610e35610e2e611784565b8383611f6a565b5050565b60606000610e6d610e4984611b7f565b604051602001610e59919061390f565b604051602081830303815290604052611d2c565b9050600c8054905081610e809190614081565b9050600c8181548110610ebc577f4e487b7100000000000000000000000000000000000000000000000000000000600052603260045260246000fd5b906000526020600020018054610ed190614006565b80601f0160208091040260200160405190810160405280929190818152602001828054610efd90614006565b8015610f4a5780601f10610f1f57610100808354040283529160200191610f4a565b820191906000526020600020905b815481529060010190602001808311610f2d57829003601f168201915b5050505050915050919050565b610f68610f62611784565b83611845565b610fa7576040517f08c379a0000000000000000000000000000000000000000000000000000000008152600401610f9e90613d47565b60405180910390fd5b610fb3848484846120d7565b50505050565b60606000610fed610fc984611b7f565b604051602001610fd991906138ed565b604051602081830303815290604052611d2c565b9050600d80549050816110009190614081565b9050600d818154811061103c577f4e487b7100000000000000000000000000000000000000000000000000000000600052603260045260246000fd5b90600052602060002001805461105190614006565b80601f016020809104026020016040519081016040528092919081815260200182805461107d90614006565b80156110ca5780601f1061109f576101008083540402835291602001916110ca565b820191906000526020600020905b8154815290600101906020018083116110ad57829003601f168201915b5050505050915050919050565b60606110e282611718565b611121576040517f08c379a000000000000000000000000000000000000000000000000000000000815260040161111890613c87565b60405180910390fd5b600060066000848152602001908152602001600020805461114190614006565b80601f016020809104026020016040519081016040528092919081815260200182805461116d90614006565b80156111ba5780601f1061118f576101008083540402835291602001916111ba565b820191906000526020600020905b81548152906001019060200180831161119d57829003601f168201915b5050505050905060006111cb612133565b90506000815114156111e1578192505050611224565b6000825111156112165780826040516020016111fe92919061382d565b60405160208183030381529060405292505050611224565b61121f8461214a565b925050505b919050565b600061123560086121f1565b90506000611242826107f6565b9050600061124f83610e39565b9050600061125c84610fb9565b9050600083838360405160200161127593929190613851565b60405160208183030381529060405290506000611291866109ba565b90506000600982600a856040516020016112ae9493929190613882565b604051602081830303815290604052905060006112f3846112ce846121ff565b6040516020016112df929190613931565b6040516020818303038152906040526121ff565b90506000816040516020016113089190613998565b60405160208183030381529060405290506113576040518060400160405280601581526020017f0a2d2d2d2d2d2d2d2d2d2d2d2d2d2d2d2d2d2d2d2d0000000000000000000000815250611615565b61136081611615565b61139e6040518060400160405280601581526020017f0a2d2d2d2d2d2d2d2d2d2d2d2d2d2d2d2d2d2d2d2d0000000000000000000000815250611615565b6113c6816040516020016113b291906138cb565b604051602081830303815290604052611615565b6114046040518060400160405280601581526020017f2d2d2d2d2d2d2d2d2d2d2d2d2d2d2d2d2d2d2d2d0a0000000000000000000000815250611615565b61140e338a6123bd565b61141889826123db565b611422600861244f565b6114456040518060600160405280602581526020016141dc602591398a33612465565b7febb98688741ffa4c7589bf325de30cf7becb63de567842e1ccdb6cb949fdc82c338a604051611476929190613a43565b60405180910390a1505050505050505050565b6000600560008473ffffffffffffffffffffffffffffffffffffffff1673ffffffffffffffffffffffffffffffffffffffff16815260200190815260200160002060008373ffffffffffffffffffffffffffffffffffffffff1673ffffffffffffffffffffffffffffffffffffffff16815260200190815260200160002060009054906101000a900460ff16905092915050565b611525611784565b73ffffffffffffffffffffffffffffffffffffffff16611543610d67565b73ffffffffffffffffffffffffffffffffffffffff1614611599576040517f08c379a000000000000000000000000000000000000000000000000000000000815260040161159090613cc7565b60405180910390fd5b600073ffffffffffffffffffffffffffffffffffffffff168173ffffffffffffffffffffffffffffffffffffffff161415611609576040517f08c379a000000000000000000000000000000000000000000000000000000000815260040161160090613b27565b60405180910390fd5b61161281611e01565b50565b6116ab816040516024016116299190613a87565b6040516020818303038152906040527f41304fac000000000000000000000000000000000000000000000000000000007bffffffffffffffffffffffffffffffffffffffffffffffffffffffff19166020820180517bffffffffffffffffffffffffffffffffffffffffffffffffffffffff8381831617835250505050612504565b50565b60007f01ffc9a7000000000000000000000000000000000000000000000000000000007bffffffffffffffffffffffffffffffffffffffffffffffffffffffff1916827bffffffffffffffffffffffffffffffffffffffffffffffffffffffff1916149050919050565b60008073ffffffffffffffffffffffffffffffffffffffff166002600084815260200190815260200160002060009054906101000a900473ffffffffffffffffffffffffffffffffffffffff1673ffffffffffffffffffffffffffffffffffffffff1614159050919050565b600033905090565b816004600083815260200190815260200160002060006101000a81548173ffffffffffffffffffffffffffffffffffffffff021916908373ffffffffffffffffffffffffffffffffffffffff160217905550808273ffffffffffffffffffffffffffffffffffffffff166117ff83610aef565b73ffffffffffffffffffffffffffffffffffffffff167f8c5be1e5ebec7d5bd14f71427d1e84f3dd0314c0f7b2291e5b200ac8c7c3b92560405160405180910390a45050565b600061185082611718565b61188f576040517f08c379a000000000000000000000000000000000000000000000000000000000815260040161188690613ba7565b60405180910390fd5b600061189a83610aef565b90508073ffffffffffffffffffffffffffffffffffffffff168473ffffffffffffffffffffffffffffffffffffffff16148061190957508373ffffffffffffffffffffffffffffffffffffffff166118f1846105f9565b73ffffffffffffffffffffffffffffffffffffffff16145b8061191a57506119198185611489565b5b91505092915050565b8273ffffffffffffffffffffffffffffffffffffffff1661194382610aef565b73ffffffffffffffffffffffffffffffffffffffff1614611999576040517f08c379a000000000000000000000000000000000000000000000000000000000815260040161199090613ce7565b60405180910390fd5b600073ffffffffffffffffffffffffffffffffffffffff168273ffffffffffffffffffffffffffffffffffffffff161415611a09576040517f08c379a0000000000000000000000000000000000000000000000000000000008152600401611a0090613b67565b60405180910390fd5b611a1483838361252d565b611a1f60008261178c565b6001600360008573ffffffffffffffffffffffffffffffffffffffff1673ffffffffffffffffffffffffffffffffffffffff1681526020019081526020016000206000828254611a6f9190613f1c565b925050819055506001600360008473ffffffffffffffffffffffffffffffffffffffff1673ffffffffffffffffffffffffffffffffffffffff1681526020019081526020016000206000828254611ac69190613e3b565b92505081905550816002600083815260200190815260200160002060006101000a81548173ffffffffffffffffffffffffffffffffffffffff021916908373ffffffffffffffffffffffffffffffffffffffff160217905550808273ffffffffffffffffffffffffffffffffffffffff168473ffffffffffffffffffffffffffffffffffffffff167fddf252ad1be2c89b69c2b068fc378daa952ba7f163c4a11628f55a4df523b3ef60405160405180910390a4505050565b60606000821415611bc7576040518060400160405280600181526020017f30000000000000000000000000000000000000000000000000000000000000008152509050611d27565b600082905060005b60008214611bf9578080611be290614038565b915050600a82611bf29190613e91565b9150611bcf565b60008167ffffffffffffffff811115611c3b577f4e487b7100000000000000000000000000000000000000000000000000000000600052604160045260246000fd5b6040519080825280601f01601f191660200182016040528015611c6d5781602001600182028036833780820191505090505b5090505b60008514611d2057600182611c869190613f1c565b9150600a85611c959190614081565b6030611ca19190613e3b565b60f81b818381518110611cdd577f4e487b7100000000000000000000000000000000000000000000000000000000600052603260045260246000fd5b60200101907effffffffffffffffffffffffffffffffffffffffffffffffffffffffffffff1916908160001a905350600a85611d199190613e91565b9450611c71565b8093505050505b919050565b600081604051602001611d3f9190613816565b6040516020818303038152906040528051906020012060001c9050919050565b611d67610ad8565b611da6576040517f08c379a0000000000000000000000000000000000000000000000000000000008152600401611d9d90613ae7565b60405180910390fd5b6000600760006101000a81548160ff0219169083151502179055507f5db9ee0a495bf2e6ff9c91a7834c1ba4fdd244a5e8aa4e537bd38aeae4b073aa611dea611784565b604051611df791906139dc565b60405180910390a1565b6000600760019054906101000a900473ffffffffffffffffffffffffffffffffffffffff16905081600760016101000a81548173ffffffffffffffffffffffffffffffffffffffff021916908373ffffffffffffffffffffffffffffffffffffffff1602179055508173ffffffffffffffffffffffffffffffffffffffff168173ffffffffffffffffffffffffffffffffffffffff167f8be0079c531659141344cd1fd0a4f28419497f9722a3daafe3b4186f6b6457e060405160405180910390a35050565b611ecf610ad8565b15611f0f576040517f08c379a0000000000000000000000000000000000000000000000000000000008152600401611f0690613bc7565b60405180910390fd5b6001600760006101000a81548160ff0219169083151502179055507f62e78cea01bee320cd4e420270b5ea74000d11b0c9f74754ebdbfc544b05a258611f53611784565b604051611f6091906139dc565b60405180910390a1565b8173ffffffffffffffffffffffffffffffffffffffff168373ffffffffffffffffffffffffffffffffffffffff161415611fd9576040517f08c379a0000000000000000000000000000000000000000000000000000000008152600401611fd090613b87565b60405180910390fd5b80600560008573ffffffffffffffffffffffffffffffffffffffff1673ffffffffffffffffffffffffffffffffffffffff16815260200190815260200160002060008473ffffffffffffffffffffffffffffffffffffffff1673ffffffffffffffffffffffffffffffffffffffff16815260200190815260200160002060006101000a81548160ff0219169083151502179055508173ffffffffffffffffffffffffffffffffffffffff168373ffffffffffffffffffffffffffffffffffffffff167f17307eab39ab6107e8899845ad3d59bd9653f200f220920489ca2b5937696c31836040516120ca9190613a6c565b60405180910390a3505050565b6120e2848484611923565b6120ee84848484612532565b61212d576040517f08c379a000000000000000000000000000000000000000000000000000000000815260040161212490613b07565b60405180910390fd5b50505050565b606060405180602001604052806000815250905090565b606061215582611718565b612194576040517f08c379a000000000000000000000000000000000000000000000000000000000815260040161218b90613d07565b60405180910390fd5b600061219e612133565b905060008151116121be57604051806020016040528060008152506121e9565b806121c884611b7f565b6040516020016121d992919061382d565b6040516020818303038152906040525b915050919050565b600081600001549050919050565b6060600082519050600081141561222857604051806020016040528060008152509150506123b8565b600060036002836122399190613e3b565b6122439190613e91565b600461224f9190613ec2565b905060006020826122609190613e3b565b67ffffffffffffffff81111561229f577f4e487b7100000000000000000000000000000000000000000000000000000000600052604160045260246000fd5b6040519080825280601f01601f1916602001820160405280156122d15781602001600182028036833780820191505090505b5090506000604051806060016040528060408152602001614201604091399050600181016020830160005b868110156123755760038101905062ffffff818a015116603f8160121c168401518060081b905060ff603f83600c1c1686015116810190508060081b905060ff603f8360061c1686015116810190508060081b905060ff603f831686015116810190508060e01b905080845260048401935050506122fc565b50600386066001811461238f576002811461239f576123aa565b613d3d60f01b60028303526123aa565b603d60f81b60018303525b508484525050819450505050505b919050565b6123d78282604051806020016040528060008152506126c9565b5050565b6123e482611718565b612423576040517f08c379a000000000000000000000000000000000000000000000000000000000815260040161241a90613c47565b60405180910390fd5b8060066000848152602001908152602001600020908051906020019061244a929190612905565b505050565b6001816000016000828254019250508190555050565b6124ff83838360405160240161247d93929190613aa9565b6040516020818303038152906040527fe3849f79000000000000000000000000000000000000000000000000000000007bffffffffffffffffffffffffffffffffffffffffffffffffffffffff19166020820180517bffffffffffffffffffffffffffffffffffffffffffffffffffffffff8381831617835250505050612504565b505050565b60008151905060006a636f6e736f6c652e6c6f679050602083016000808483855afa5050505050565b505050565b60006125538473ffffffffffffffffffffffffffffffffffffffff16612724565b156126bc578373ffffffffffffffffffffffffffffffffffffffff1663150b7a0261257c611784565b8786866040518563ffffffff1660e01b815260040161259e94939291906139f7565b602060405180830381600087803b1580156125b857600080fd5b505af19250505080156125e957506040513d601f19601f820116820180604052508101906125e69190612c49565b60015b61266c573d8060008114612619576040519150601f19603f3d011682016040523d82523d6000602084013e61261e565b606091505b50600081511415612664576040517f08c379a000000000000000000000000000000000000000000000000000000000815260040161265b90613b07565b60405180910390fd5b805181602001fd5b63150b7a0260e01b7bffffffffffffffffffffffffffffffffffffffffffffffffffffffff1916817bffffffffffffffffffffffffffffffffffffffffffffffffffffffff1916149150506126c1565b600190505b949350505050565b6126d38383612737565b6126e06000848484612532565b61271f576040517f08c379a000000000000000000000000000000000000000000000000000000000815260040161271690613b07565b60405180910390fd5b505050565b600080823b905060008111915050919050565b600073ffffffffffffffffffffffffffffffffffffffff168273ffffffffffffffffffffffffffffffffffffffff1614156127a7576040517f08c379a000000000000000000000000000000000000000000000000000000000815260040161279e90613c67565b60405180910390fd5b6127b081611718565b156127f0576040517f08c379a00000000000000000000000000000000000000000000000000000000081526004016127e790613b47565b60405180910390fd5b6127fc6000838361252d565b6001600360008473ffffffffffffffffffffffffffffffffffffffff1673ffffffffffffffffffffffffffffffffffffffff168152602001908152602001600020600082825461284c9190613e3b565b92505081905550816002600083815260200190815260200160002060006101000a81548173ffffffffffffffffffffffffffffffffffffffff021916908373ffffffffffffffffffffffffffffffffffffffff160217905550808273ffffffffffffffffffffffffffffffffffffffff16600073ffffffffffffffffffffffffffffffffffffffff167fddf252ad1be2c89b69c2b068fc378daa952ba7f163c4a11628f55a4df523b3ef60405160405180910390a45050565b82805461291190614006565b90600052602060002090601f016020900481019282612933576000855561297a565b82601f1061294c57805160ff191683800117855561297a565b8280016001018555821561297a579182015b8281111561297957825182559160200191906001019061295e565b5b509050612987919061298b565b5090565b5b808211156129a457600081600090555060010161298c565b5090565b60006129bb6129b684613db3565b613d82565b9050828152602081018484840111156129d357600080fd5b6129de848285613fc4565b509392505050565b6000813590506129f58161417f565b92915050565b600081359050612a0a81614196565b92915050565b600081359050612a1f816141ad565b92915050565b600081519050612a34816141ad565b92915050565b600082601f830112612a4b57600080fd5b8135612a5b8482602086016129a8565b91505092915050565b600081359050612a73816141c4565b92915050565b600060208284031215612a8b57600080fd5b6000612a99848285016129e6565b91505092915050565b60008060408385031215612ab557600080fd5b6000612ac3858286016129e6565b9250506020612ad4858286016129e6565b9150509250929050565b600080600060608486031215612af357600080fd5b6000612b01868287016129e6565b9350506020612b12868287016129e6565b9250506040612b2386828701612a64565b9150509250925092565b60008060008060808587031215612b4357600080fd5b6000612b51878288016129e6565b9450506020612b62878288016129e6565b9350506040612b7387828801612a64565b925050606085013567ffffffffffffffff811115612b9057600080fd5b612b9c87828801612a3a565b91505092959194509250565b60008060408385031215612bbb57600080fd5b6000612bc9858286016129e6565b9250506020612bda858286016129fb565b9150509250929050565b60008060408385031215612bf757600080fd5b6000612c05858286016129e6565b9250506020612c1685828601612a64565b9150509250929050565b600060208284031215612c3257600080fd5b6000612c4084828501612a10565b91505092915050565b600060208284031215612c5b57600080fd5b6000612c6984828501612a25565b91505092915050565b600060208284031215612c8457600080fd5b6000612c9284828501612a64565b91505092915050565b612ca481613f50565b82525050565b612cb381613f62565b82525050565b6000612cc482613df8565b612cce8185613e0e565b9350612cde818560208601613fd3565b612ce78161416e565b840191505092915050565b6000612cfd82613e03565b612d078185613e1f565b9350612d17818560208601613fd3565b612d208161416e565b840191505092915050565b6000612d3682613e03565b612d408185613e30565b9350612d50818560208601613fd3565b80840191505092915050565b60008154612d6981614006565b612d738186613e30565b94506001821660008114612d8e5760018114612d9f57612dd2565b60ff19831686528186019350612dd2565b612da885613de3565b60005b83811015612dca57815481890152600182019150602081019050612dab565b838801955050505b50505092915050565b6000612de8602583613e30565b91507f68747470733a2f2f6e6674707265766965772e30786465762e636f6465732f3f60008301527f636f64653d0000000000000000000000000000000000000000000000000000006020830152602582019050919050565b6000612e4e601483613e1f565b91507f5061757361626c653a206e6f74207061757365640000000000000000000000006000830152602082019050919050565b6000612e8e603283613e1f565b91507f4552433732313a207472616e7366657220746f206e6f6e20455243373231526560008301527f63656976657220696d706c656d656e74657200000000000000000000000000006020830152604082019050919050565b6000612ef4602683613e1f565b91507f4f776e61626c653a206e6577206f776e657220697320746865207a65726f206160008301527f64647265737300000000000000000000000000000000000000000000000000006020830152604082019050919050565b6000612f5a601c83613e1f565b91507f4552433732313a20746f6b656e20616c7265616479206d696e746564000000006000830152602082019050919050565b6000612f9a600a83613e30565b91507f54484952445f574f5244000000000000000000000000000000000000000000006000830152600a82019050919050565b6000612fda602483613e1f565b91507f4552433732313a207472616e7366657220746f20746865207a65726f2061646460008301527f72657373000000000000000000000000000000000000000000000000000000006020830152604082019050919050565b6000613040601983613e1f565b91507f4552433732313a20617070726f766520746f2063616c6c6572000000000000006000830152602082019050919050565b6000613080606383613e30565b91507f222c20226465736372697074696f6e223a20224120686967686c79206163636c60008301527f61696d656420636f6c6c656374696f6e206f6620737175617265732e222c202260208301527f696d616765223a2022646174613a696d6167652f7376672b786d6c3b6261736560408301527f36342c00000000000000000000000000000000000000000000000000000000006060830152606382019050919050565b6000613132600b83613e30565b91507f5345434f4e445f574f52440000000000000000000000000000000000000000006000830152600b82019050919050565b6000613172602c83613e1f565b91507f4552433732313a206f70657261746f7220717565727920666f72206e6f6e657860008301527f697374656e7420746f6b656e00000000000000000000000000000000000000006020830152604082019050919050565b60006131d8600d83613e30565b91507f3c2f746578743e3c2f7376673e000000000000000000000000000000000000006000830152600d82019050919050565b6000613218601083613e1f565b91507f5061757361626c653a20706175736564000000000000000000000000000000006000830152602082019050919050565b6000613258603883613e1f565b91507f4552433732313a20617070726f76652063616c6c6572206973206e6f74206f7760008301527f6e6572206e6f7220617070726f76656420666f7220616c6c00000000000000006020830152604082019050919050565b60006132be602a83613e1f565b91507f4552433732313a2062616c616e636520717565727920666f7220746865207a6560008301527f726f2061646472657373000000000000000000000000000000000000000000006020830152604082019050919050565b6000613324602983613e1f565b91507f4552433732313a206f776e657220717565727920666f72206e6f6e657869737460008301527f656e7420746f6b656e00000000000000000000000000000000000000000000006020830152604082019050919050565b600061338a602e83613e1f565b91507f45524337323155524953746f726167653a2055524920736574206f66206e6f6e60008301527f6578697374656e7420746f6b656e0000000000000000000000000000000000006020830152604082019050919050565b60006133f0600283613e30565b91507f227d0000000000000000000000000000000000000000000000000000000000006000830152600282019050919050565b6000613430602083613e1f565b91507f4552433732313a206d696e7420746f20746865207a65726f20616464726573736000830152602082019050919050565b6000613470603183613e1f565b91507f45524337323155524953746f726167653a2055524920717565727920666f722060008301527f6e6f6e6578697374656e7420746f6b656e0000000000000000000000000000006020830152604082019050919050565b60006134d6602c83613e1f565b91507f4552433732313a20617070726f76656420717565727920666f72206e6f6e657860008301527f697374656e7420746f6b656e00000000000000000000000000000000000000006020830152604082019050919050565b600061353c602083613e1f565b91507f4f776e61626c653a2063616c6c6572206973206e6f7420746865206f776e65726000830152602082019050919050565b600061357c602983613e1f565b91507f4552433732313a207472616e73666572206f6620746f6b656e2074686174206960008301527f73206e6f74206f776e00000000000000000000000000000000000000000000006020830152604082019050919050565b60006135e2602f83613e1f565b91507f4552433732314d657461646174613a2055524920717565727920666f72206e6f60008301527f6e6578697374656e7420746f6b656e00000000000000000000000000000000006020830152604082019050919050565b6000613648600a83613e30565b91507f7b226e616d65223a2022000000000000000000000000000000000000000000006000830152600a82019050919050565b6000613688602183613e1f565b91507f4552433732313a20617070726f76616c20746f2063757272656e74206f776e6560008301527f72000000000000000000000000000000000000000000000000000000000000006020830152604082019050919050565b60006136ee600a83613e30565b91507f46495253545f574f5244000000000000000000000000000000000000000000006000830152600a82019050919050565b600061372e601d83613e30565b91507f646174613a6170706c69636174696f6e2f6a736f6e3b6261736536342c0000006000830152601d82019050919050565b600061376e603183613e1f565b91507f4552433732313a207472616e736665722063616c6c6572206973206e6f74206f60008301527f776e6572206e6f7220617070726f7665640000000000000000000000000000006020830152604082019050919050565b60006137d4600583613e30565b91507f434f4c4f520000000000000000000000000000000000000000000000000000006000830152600582019050919050565b61381081613fba565b82525050565b60006138228284612d2b565b915081905092915050565b60006138398285612d2b565b91506138458284612d2b565b91508190509392505050565b600061385d8286612d2b565b91506138698285612d2b565b91506138758284612d2b565b9150819050949350505050565b600061388e8287612d5c565b915061389a8286612d2b565b91506138a68285612d5c565b91506138b28284612d2b565b91506138bd826131cb565b915081905095945050505050565b60006138d682612ddb565b91506138e28284612d2b565b915081905092915050565b60006138f882612f8d565b91506139048284612d2b565b915081905092915050565b600061391a82613125565b91506139268284612d2b565b915081905092915050565b600061393c8261363b565b91506139488285612d2b565b915061395382613073565b915061395f8284612d2b565b915061396a826133e3565b91508190509392505050565b6000613981826136e1565b915061398d8284612d2b565b915081905092915050565b60006139a382613721565b91506139af8284612d2b565b915081905092915050565b60006139c5826137c7565b91506139d18284612d2b565b915081905092915050565b60006020820190506139f16000830184612c9b565b92915050565b6000608082019050613a0c6000830187612c9b565b613a196020830186612c9b565b613a266040830185613807565b8181036060830152613a388184612cb9565b905095945050505050565b6000604082019050613a586000830185612c9b565b613a656020830184613807565b9392505050565b6000602082019050613a816000830184612caa565b92915050565b60006020820190508181036000830152613aa18184612cf2565b905092915050565b60006060820190508181036000830152613ac38186612cf2565b9050613ad26020830185613807565b613adf6040830184612c9b565b949350505050565b60006020820190508181036000830152613b0081612e41565b9050919050565b60006020820190508181036000830152613b2081612e81565b9050919050565b60006020820190508181036000830152613b4081612ee7565b9050919050565b60006020820190508181036000830152613b6081612f4d565b9050919050565b60006020820190508181036000830152613b8081612fcd565b9050919050565b60006020820190508181036000830152613ba081613033565b9050919050565b60006020820190508181036000830152613bc081613165565b9050919050565b60006020820190508181036000830152613be08161320b565b9050919050565b60006020820190508181036000830152613c008161324b565b9050919050565b60006020820190508181036000830152613c20816132b1565b9050919050565b60006020820190508181036000830152613c4081613317565b9050919050565b60006020820190508181036000830152613c608161337d565b9050919050565b60006020820190508181036000830152613c8081613423565b9050919050565b60006020820190508181036000830152613ca081613463565b9050919050565b60006020820190508181036000830152613cc0816134c9565b9050919050565b60006020820190508181036000830152613ce08161352f565b9050919050565b60006020820190508181036000830152613d008161356f565b9050919050565b60006020820190508181036000830152613d20816135d5565b9050919050565b60006020820190508181036000830152613d408161367b565b9050919050565b60006020820190508181036000830152613d6081613761565b9050919050565b6000602082019050613d7c6000830184613807565b92915050565b6000604051905081810181811067ffffffffffffffff82111715613da957613da861413f565b5b8060405250919050565b600067ffffffffffffffff821115613dce57613dcd61413f565b5b601f19601f8301169050602081019050919050565b60008190508160005260206000209050919050565b600081519050919050565b600081519050919050565b600082825260208201905092915050565b600082825260208201905092915050565b600081905092915050565b6000613e4682613fba565b9150613e5183613fba565b9250827fffffffffffffffffffffffffffffffffffffffffffffffffffffffffffffffff03821115613e8657613e856140b2565b5b828201905092915050565b6000613e9c82613fba565b9150613ea783613fba565b925082613eb757613eb66140e1565b5b828204905092915050565b6000613ecd82613fba565b9150613ed883613fba565b9250817fffffffffffffffffffffffffffffffffffffffffffffffffffffffffffffffff0483118215151615613f1157613f106140b2565b5b828202905092915050565b6000613f2782613fba565b9150613f3283613fba565b925082821015613f4557613f446140b2565b5b828203905092915050565b6000613f5b82613f9a565b9050919050565b60008115159050919050565b60007fffffffff0000000000000000000000000000000000000000000000000000000082169050919050565b600073ffffffffffffffffffffffffffffffffffffffff82169050919050565b6000819050919050565b82818337600083830152505050565b60005b83811015613ff1578082015181840152602081019050613fd6565b83811115614000576000848401525b50505050565b6000600282049050600182168061401e57607f821691505b6020821081141561403257614031614110565b5b50919050565b600061404382613fba565b91507fffffffffffffffffffffffffffffffffffffffffffffffffffffffffffffffff821415614076576140756140b2565b5b600182019050919050565b600061408c82613fba565b915061409783613fba565b9250826140a7576140a66140e1565b5b828206905092915050565b7f4e487b7100000000000000000000000000000000000000000000000000000000600052601160045260246000fd5b7f4e487b7100000000000000000000000000000000000000000000000000000000600052601260045260246000fd5b7f4e487b7100000000000000000000000000000000000000000000000000000000600052602260045260246000fd5b7f4e487b7100000000000000000000000000000000000000000000000000000000600052604160045260246000fd5b6000601f19601f8301169050919050565b61418881613f50565b811461419357600080fd5b50565b61419f81613f62565b81146141aa57600080fd5b50565b6141b681613f6e565b81146141c157600080fd5b50565b6141cd81613fba565b81146141d857600080fd5b5056fe416e204e465420772f20494420257320686173206265656e206d696e74656420746f2025734142434445464748494a4b4c4d4e4f505152535455565758595a6162636465666768696a6b6c6d6e6f707172737475767778797a303132333435363738392b2fa26469706673582212200fdc71ee928346a8309bbf730ddc615a57e507716191d05ae80bfb2ccc89081164736f6c634300080000333c73766720786d6c6e733d27687474703a2f2f7777772e77332e6f72672f323030302f73766727207072657365727665417370656374526174696f3d27784d696e594d696e206d656574272076696577426f783d273020302033353020333530273e3c7374796c653e2e62617365207b2066696c6c3a2077686974653b20666f6e742d66616d696c793a2073657269663b20666f6e742d73697a653a20323470783b207d3c2f7374796c653e3c726563742077696474683d273130302527206865696768743d2731303025272066696c6c3d27272f3e3c7465787420783d273530252720793d273530252720636c6173733d27626173652720646f6d696e616e742d626173656c696e653d276d6964646c652720746578742d616e63686f723d276d6964646c65273e",
  "linkReferences": {},
  "deployedLinkReferences": {}
}