{
  "_format": "hh-sol-artifact-1",
  "contractName": "RandomTextNFT",
  "sourceName": "contracts/MyEpicNFT.sol",
  "abi": [
    {
      "inputs": [],
      "stateMutability": "nonpayable",
      "type": "constructor"
    },
    {
      "anonymous": false,
      "inputs": [
        {
          "indexed": true,
          "internalType": "address",
          "name": "owner",
          "type": "address"
        },
        {
          "indexed": true,
          "internalType": "address",
          "name": "approved",
          "type": "address"
        },
        {
          "indexed": true,
          "internalType": "uint256",
          "name": "tokenId",
          "type": "uint256"
        }
      ],
      "name": "Approval",
      "type": "event"
    },
    {
      "anonymous": false,
      "inputs": [
        {
          "indexed": true,
          "internalType": "address",
          "name": "owner",
          "type": "address"
        },
        {
          "indexed": true,
          "internalType": "address",
          "name": "operator",
          "type": "address"
        },
        {
          "indexed": false,
          "internalType": "bool",
          "name": "approved",
          "type": "bool"
        }
      ],
      "name": "ApprovalForAll",
      "type": "event"
    },
    {
      "anonymous": false,
      "inputs": [
        {
          "indexed": false,
          "internalType": "address",
          "name": "sender",
          "type": "address"
        },
        {
          "indexed": false,
          "internalType": "uint256",
          "name": "tokenId",
          "type": "uint256"
        }
      ],
      "name": "NewEpicNFTMinted",
      "type": "event"
    },
    {
      "anonymous": false,
      "inputs": [
        {
          "indexed": true,
          "internalType": "address",
          "name": "previousOwner",
          "type": "address"
        },
        {
          "indexed": true,
          "internalType": "address",
          "name": "newOwner",
          "type": "address"
        }
      ],
      "name": "OwnershipTransferred",
      "type": "event"
    },
    {
      "anonymous": false,
      "inputs": [
        {
          "indexed": false,
          "internalType": "address",
          "name": "account",
          "type": "address"
        }
      ],
      "name": "Paused",
      "type": "event"
    },
    {
      "anonymous": false,
      "inputs": [
        {
          "indexed": true,
          "internalType": "address",
          "name": "from",
          "type": "address"
        },
        {
          "indexed": true,
          "internalType": "address",
          "name": "to",
          "type": "address"
        },
        {
          "indexed": true,
          "internalType": "uint256",
          "name": "tokenId",
          "type": "uint256"
        }
      ],
      "name": "Transfer",
      "type": "event"
    },
    {
      "anonymous": false,
      "inputs": [
        {
          "indexed": false,
          "internalType": "address",
          "name": "account",
          "type": "address"
        }
      ],
      "name": "Unpaused",
      "type": "event"
    },
    {
      "inputs": [
        {
          "internalType": "address",
          "name": "to",
          "type": "address"
        },
        {
          "internalType": "uint256",
          "name": "tokenId",
          "type": "uint256"
        }
      ],
      "name": "approve",
      "outputs": [],
      "stateMutability": "nonpayable",
      "type": "function"
    },
    {
      "inputs": [
        {
          "internalType": "address",
          "name": "owner",
          "type": "address"
        }
      ],
      "name": "balanceOf",
      "outputs": [
        {
          "internalType": "uint256",
          "name": "",
          "type": "uint256"
        }
      ],
      "stateMutability": "view",
      "type": "function"
    },
    {
      "inputs": [
        {
          "internalType": "uint256",
          "name": "tokenId",
          "type": "uint256"
        }
      ],
      "name": "getApproved",
      "outputs": [
        {
          "internalType": "address",
          "name": "",
          "type": "address"
        }
      ],
      "stateMutability": "view",
      "type": "function"
    },
    {
      "inputs": [
        {
          "internalType": "address",
          "name": "owner",
          "type": "address"
        },
        {
          "internalType": "address",
          "name": "operator",
          "type": "address"
        }
      ],
      "name": "isApprovedForAll",
      "outputs": [
        {
          "internalType": "bool",
          "name": "",
          "type": "bool"
        }
      ],
      "stateMutability": "view",
      "type": "function"
    },
    {
      "inputs": [],
      "name": "makeAnEpicNFT",
      "outputs": [],
      "stateMutability": "payable",
      "type": "function"
    },
    {
      "inputs": [],
      "name": "maxSupply",
      "outputs": [
        {
          "internalType": "uint256",
          "name": "",
          "type": "uint256"
        }
      ],
      "stateMutability": "view",
      "type": "function"
    },
    {
      "inputs": [],
      "name": "mintPrice",
      "outputs": [
        {
          "internalType": "uint256",
          "name": "",
          "type": "uint256"
        }
      ],
      "stateMutability": "view",
      "type": "function"
    },
    {
      "inputs": [],
      "name": "name",
      "outputs": [
        {
          "internalType": "string",
          "name": "",
          "type": "string"
        }
      ],
      "stateMutability": "view",
      "type": "function"
    },
    {
      "inputs": [],
      "name": "owner",
      "outputs": [
        {
          "internalType": "address",
          "name": "",
          "type": "address"
        }
      ],
      "stateMutability": "view",
      "type": "function"
    },
    {
      "inputs": [
        {
          "internalType": "uint256",
          "name": "tokenId",
          "type": "uint256"
        }
      ],
      "name": "ownerOf",
      "outputs": [
        {
          "internalType": "address",
          "name": "",
          "type": "address"
        }
      ],
      "stateMutability": "view",
      "type": "function"
    },
    {
      "inputs": [],
      "name": "pause",
      "outputs": [],
      "stateMutability": "nonpayable",
      "type": "function"
    },
    {
      "inputs": [],
      "name": "paused",
      "outputs": [
        {
          "internalType": "bool",
          "name": "",
          "type": "bool"
        }
      ],
      "stateMutability": "view",
      "type": "function"
    },
    {
      "inputs": [
        {
          "internalType": "uint256",
          "name": "tokenId",
          "type": "uint256"
        }
      ],
      "name": "pickRandomColor",
      "outputs": [
        {
          "internalType": "string",
          "name": "",
          "type": "string"
        }
      ],
      "stateMutability": "view",
      "type": "function"
    },
    {
      "inputs": [
        {
          "internalType": "uint256",
          "name": "tokenId",
          "type": "uint256"
        }
      ],
      "name": "pickRandomFirstWord",
      "outputs": [
        {
          "internalType": "string",
          "name": "",
          "type": "string"
        }
      ],
      "stateMutability": "view",
      "type": "function"
    },
    {
      "inputs": [
        {
          "internalType": "uint256",
          "name": "tokenId",
          "type": "uint256"
        }
      ],
      "name": "pickRandomSecondWord",
      "outputs": [
        {
          "internalType": "string",
          "name": "",
          "type": "string"
        }
      ],
      "stateMutability": "view",
      "type": "function"
    },
    {
      "inputs": [
        {
          "internalType": "uint256",
          "name": "tokenId",
          "type": "uint256"
        }
      ],
      "name": "pickRandomThirdWord",
      "outputs": [
        {
          "internalType": "string",
          "name": "",
          "type": "string"
        }
      ],
      "stateMutability": "view",
      "type": "function"
    },
    {
      "inputs": [],
      "name": "renounceOwnership",
      "outputs": [],
      "stateMutability": "nonpayable",
      "type": "function"
    },
    {
      "inputs": [
        {
          "internalType": "address",
          "name": "from",
          "type": "address"
        },
        {
          "internalType": "address",
          "name": "to",
          "type": "address"
        },
        {
          "internalType": "uint256",
          "name": "tokenId",
          "type": "uint256"
        }
      ],
      "name": "safeTransferFrom",
      "outputs": [],
      "stateMutability": "nonpayable",
      "type": "function"
    },
    {
      "inputs": [
        {
          "internalType": "address",
          "name": "from",
          "type": "address"
        },
        {
          "internalType": "address",
          "name": "to",
          "type": "address"
        },
        {
          "internalType": "uint256",
          "name": "tokenId",
          "type": "uint256"
        },
        {
          "internalType": "bytes",
          "name": "_data",
          "type": "bytes"
        }
      ],
      "name": "safeTransferFrom",
      "outputs": [],
      "stateMutability": "nonpayable",
      "type": "function"
    },
    {
      "inputs": [
        {
          "internalType": "address",
          "name": "operator",
          "type": "address"
        },
        {
          "internalType": "bool",
          "name": "approved",
          "type": "bool"
        }
      ],
      "name": "setApprovalForAll",
      "outputs": [],
      "stateMutability": "nonpayable",
      "type": "function"
    },
    {
      "inputs": [
        {
          "internalType": "bytes4",
          "name": "interfaceId",
          "type": "bytes4"
        }
      ],
      "name": "supportsInterface",
      "outputs": [
        {
          "internalType": "bool",
          "name": "",
          "type": "bool"
        }
      ],
      "stateMutability": "view",
      "type": "function"
    },
    {
      "inputs": [],
      "name": "symbol",
      "outputs": [
        {
          "internalType": "string",
          "name": "",
          "type": "string"
        }
      ],
      "stateMutability": "view",
      "type": "function"
    },
    {
      "inputs": [
        {
          "internalType": "uint256",
          "name": "tokenId",
          "type": "uint256"
        }
      ],
      "name": "tokenURI",
      "outputs": [
        {
          "internalType": "string",
          "name": "",
          "type": "string"
        }
      ],
      "stateMutability": "view",
      "type": "function"
    },
    {
      "inputs": [],
      "name": "totalSupply",
      "outputs": [
        {
          "internalType": "uint256",
          "name": "",
          "type": "uint256"
        }
      ],
      "stateMutability": "view",
      "type": "function"
    },
    {
      "inputs": [
        {
          "internalType": "address",
          "name": "from",
          "type": "address"
        },
        {
          "internalType": "address",
          "name": "to",
          "type": "address"
        },
        {
          "internalType": "uint256",
          "name": "tokenId",
          "type": "uint256"
        }
      ],
      "name": "transferFrom",
      "outputs": [],
      "stateMutability": "nonpayable",
      "type": "function"
    },
    {
      "inputs": [
        {
          "internalType": "address",
          "name": "newOwner",
          "type": "address"
        }
      ],
      "name": "transferOwnership",
      "outputs": [],
      "stateMutability": "nonpayable",
      "type": "function"
    },
    {
      "inputs": [],
      "name": "unpause",
      "outputs": [],
      "stateMutability": "nonpayable",
      "type": "function"
    },
    {
      "inputs": [],
      "name": "withdraw",
      "outputs": [],
      "stateMutability": "nonpayable",
      "type": "function"
    }
  ],
  "bytecode": "0x608060405260326009556000600a5566038d7ea4c68000600b5560405180610100016040528060d381526020016200542260d39139600c90805190602001906200004b92919062000a75565b50604051806080016040528060568152602001620054f560569139600d90805190602001906200007d92919062000a75565b506040518060c001604052806040518060400160405280600681526020017f59656c6c6f77000000000000000000000000000000000000000000000000000081525081526020016040518060400160405280600381526020017f526564000000000000000000000000000000000000000000000000000000000081525081526020016040518060400160405280600481526020017f50696e6b0000000000000000000000000000000000000000000000000000000081525081526020016040518060400160405280600581526020017f426c61636b00000000000000000000000000000000000000000000000000000081525081526020016040518060400160405280600481526020017f426c75650000000000000000000000000000000000000000000000000000000081525081526020016040518060400160405280600581526020017f477265656e000000000000000000000000000000000000000000000000000000815250815250600e906006620001fb92919062000b06565b506040518060c001604052806040518060400160405280600381526020017f466174000000000000000000000000000000000000000000000000000000000081525081526020016040518060400160405280600681526020017f536b696e6e79000000000000000000000000000000000000000000000000000081525081526020016040518060400160405280600481526020017f536c696d0000000000000000000000000000000000000000000000000000000081525081526020016040518060400160405280600581526020017f53686f727400000000000000000000000000000000000000000000000000000081525081526020016040518060400160405280600481526020017f54616c6c0000000000000000000000000000000000000000000000000000000081525081526020016040518060400160405280600381526020017f4669740000000000000000000000000000000000000000000000000000000000815250815250600f9060066200037992919062000b06565b506040518060c001604052806040518060400160405280600381526020017f477579000000000000000000000000000000000000000000000000000000000081525081526020016040518060400160405280600481526020017f4c6164790000000000000000000000000000000000000000000000000000000081525081526020016040518060400160405280600481526020017f536869740000000000000000000000000000000000000000000000000000000081525081526020016040518060400160405280600381526020017f536972000000000000000000000000000000000000000000000000000000000081525081526020016040518060400160405280600381526020017f4b6964000000000000000000000000000000000000000000000000000000000081525081526020016040518060400160405280600381526020017f41706500000000000000000000000000000000000000000000000000000000008152508152506010906006620004f792919062000b06565b506040518060c001604052806040518060400160405280600381526020017f726564000000000000000000000000000000000000000000000000000000000081525081526020016040518060400160405280600781526020017f233038433241380000000000000000000000000000000000000000000000000081525081526020016040518060400160405280600581526020017f626c61636b00000000000000000000000000000000000000000000000000000081525081526020016040518060400160405280600681526020017f79656c6c6f77000000000000000000000000000000000000000000000000000081525081526020016040518060400160405280600481526020017f626c75650000000000000000000000000000000000000000000000000000000081525081526020016040518060400160405280600581526020017f677265656e00000000000000000000000000000000000000000000000000000081525081525060119060066200067592919062000b06565b503480156200068357600080fd5b506040518060400160405280600d81526020017f52616e646f6d546578744e4654000000000000000000000000000000000000008152506040518060400160405280600581526020017f52544e465400000000000000000000000000000000000000000000000000000081525081600090805190602001906200070892919062000a75565b5080600190805190602001906200072192919062000a75565b5050506000600760006101000a81548160ff0219169083151502179055506200075f620007536200080b60201b60201c565b6200081360201b60201c565b620007aa6040518060400160405280601f81526020017f52616e646f6d546578744e465420636f6e7472616374206465706c6f79656400815250620008d960201b6200190d1760201c565b620008056040518060400160405280600e81526020017f436f6e7472616374206f776e6572000000000000000000000000000000000000815250620007f46200097c60201b60201c565b620009a660201b620019a61760201c565b62000da0565b600033905090565b6000600760019054906101000a900473ffffffffffffffffffffffffffffffffffffffff16905081600760016101000a81548173ffffffffffffffffffffffffffffffffffffffff021916908373ffffffffffffffffffffffffffffffffffffffff1602179055508173ffffffffffffffffffffffffffffffffffffffff168173ffffffffffffffffffffffffffffffffffffffff167f8be0079c531659141344cd1fd0a4f28419497f9722a3daafe3b4186f6b6457e060405160405180910390a35050565b6200097981604051602401620008f0919062000c4c565b6040516020818303038152906040527f41304fac000000000000000000000000000000000000000000000000000000007bffffffffffffffffffffffffffffffffffffffffffffffffffffffff19166020820180517bffffffffffffffffffffffffffffffffffffffffffffffffffffffff838183161783525050505062000a4c60201b60201c565b50565b6000600760019054906101000a900473ffffffffffffffffffffffffffffffffffffffff16905090565b62000a488282604051602401620009bf92919062000c70565b6040516020818303038152906040527f319af333000000000000000000000000000000000000000000000000000000007bffffffffffffffffffffffffffffffffffffffffffffffffffffffff19166020820180517bffffffffffffffffffffffffffffffffffffffffffffffffffffffff838183161783525050505062000a4c60201b60201c565b5050565b60008151905060006a636f6e736f6c652e6c6f679050602083016000808483855afa5050505050565b82805462000a839062000d2a565b90600052602060002090601f01602090048101928262000aa7576000855562000af3565b82601f1062000ac257805160ff191683800117855562000af3565b8280016001018555821562000af3579182015b8281111562000af257825182559160200191906001019062000ad5565b5b50905062000b02919062000b6d565b5090565b82805482825590600052602060002090810192821562000b5a579160200282015b8281111562000b5957825182908051906020019062000b4892919062000a75565b509160200191906001019062000b27565b5b50905062000b69919062000b8c565b5090565b5b8082111562000b8857600081600090555060010162000b6e565b5090565b5b8082111562000bb0576000818162000ba6919062000bb4565b5060010162000b8d565b5090565b50805462000bc29062000d2a565b6000825580601f1062000bd6575062000bf7565b601f01602090049060005260206000209081019062000bf6919062000b6d565b5b50565b62000c058162000cc0565b82525050565b600062000c188262000ca4565b62000c24818562000caf565b935062000c3681856020860162000cf4565b62000c418162000d8f565b840191505092915050565b6000602082019050818103600083015262000c68818462000c0b565b905092915050565b6000604082019050818103600083015262000c8c818562000c0b565b905062000c9d602083018462000bfa565b9392505050565b600081519050919050565b600082825260208201905092915050565b600062000ccd8262000cd4565b9050919050565b600073ffffffffffffffffffffffffffffffffffffffff82169050919050565b60005b8381101562000d1457808201518184015260208101905062000cf7565b8381111562000d24576000848401525b50505050565b6000600282049050600182168062000d4357607f821691505b6020821081141562000d5a5762000d5962000d60565b5b50919050565b7f4e487b7100000000000000000000000000000000000000000000000000000000600052602260045260246000fd5b6000601f19601f8301169050919050565b6146728062000db06000396000f3fe6080604052600436106101b75760003560e01c806370a08231116100ec578063b88d4fde1161008a578063d5abeb0111610064578063d5abeb011461060c578063de9d132f14610637578063e985e9c514610641578063f2fde38b1461067e576101b7565b8063b88d4fde14610569578063c575757a14610592578063c87b56dd146105cf576101b7565b80638da5cb5b116100c65780638da5cb5b146104ad57806395d89b41146104d8578063a22cb46514610503578063b187301f1461052c576101b7565b806370a0823114610442578063715018a61461047f5780638456cb5914610496576101b7565b80633ccfd60b11610159578063514dc8c611610133578063514dc8c6146103725780635c975abb146103af5780636352211e146103da5780636817c76c14610417576101b7565b80633ccfd60b1461031b5780633f4ba83a1461033257806342842e0e14610349576101b7565b8063095ea7b311610195578063095ea7b31461026157806318160ddd1461028a57806323b872dd146102b55780632de38d68146102de576101b7565b806301ffc9a7146101bc57806306fdde03146101f9578063081812fc14610224575b600080fd5b3480156101c857600080fd5b506101e360048036038101906101de9190612fb4565b6106a7565b6040516101f09190613df8565b60405180910390f35b34801561020557600080fd5b5061020e610789565b60405161021b9190613e13565b60405180910390f35b34801561023057600080fd5b5061024b60048036038101906102469190613006565b61081b565b6040516102589190613d68565b60405180910390f35b34801561026d57600080fd5b5061028860048036038101906102839190612f78565b6108a0565b005b34801561029657600080fd5b5061029f6109b8565b6040516102ac9190614163565b60405180910390f35b3480156102c157600080fd5b506102dc60048036038101906102d79190612e72565b6109be565b005b3480156102ea57600080fd5b5061030560048036038101906103009190613006565b610a1e565b6040516103129190613e13565b60405180910390f35b34801561032757600080fd5b50610330610b3c565b005b34801561033e57600080fd5b50610347610c35565b005b34801561035557600080fd5b50610370600480360381019061036b9190612e72565b610cbb565b005b34801561037e57600080fd5b5061039960048036038101906103949190613006565b610cdb565b6040516103a69190613e13565b60405180910390f35b3480156103bb57600080fd5b506103c4610df9565b6040516103d19190613df8565b60405180910390f35b3480156103e657600080fd5b5061040160048036038101906103fc9190613006565b610e10565b60405161040e9190613d68565b60405180910390f35b34801561042357600080fd5b5061042c610ec2565b6040516104399190614163565b60405180910390f35b34801561044e57600080fd5b5061046960048036038101906104649190612e0d565b610ec8565b6040516104769190614163565b60405180910390f35b34801561048b57600080fd5b50610494610f80565b005b3480156104a257600080fd5b506104ab611008565b005b3480156104b957600080fd5b506104c261108e565b6040516104cf9190613d68565b60405180910390f35b3480156104e457600080fd5b506104ed6110b8565b6040516104fa9190613e13565b60405180910390f35b34801561050f57600080fd5b5061052a60048036038101906105259190612f3c565b61114a565b005b34801561053857600080fd5b50610553600480360381019061054e9190613006565b611160565b6040516105609190613e13565b60405180910390f35b34801561057557600080fd5b50610590600480360381019061058b9190612ec1565b61127e565b005b34801561059e57600080fd5b506105b960048036038101906105b49190613006565b6112e0565b6040516105c69190613e13565b60405180910390f35b3480156105db57600080fd5b506105f660048036038101906105f19190613006565b6113fe565b6040516106039190613e13565b60405180910390f35b34801561061857600080fd5b50610621611550565b60405161062e9190614163565b60405180910390f35b61063f611556565b005b34801561064d57600080fd5b5061066860048036038101906106639190612e36565b611781565b6040516106759190613df8565b60405180910390f35b34801561068a57600080fd5b506106a560048036038101906106a09190612e0d565b611815565b005b60007f80ac58cd000000000000000000000000000000000000000000000000000000007bffffffffffffffffffffffffffffffffffffffffffffffffffffffff1916827bffffffffffffffffffffffffffffffffffffffffffffffffffffffff1916148061077257507f5b5e139f000000000000000000000000000000000000000000000000000000007bffffffffffffffffffffffffffffffffffffffffffffffffffffffff1916827bffffffffffffffffffffffffffffffffffffffffffffffffffffffff1916145b80610782575061078182611a42565b5b9050919050565b60606000805461079890614402565b80601f01602080910402602001604051908101604052809291908181526020018280546107c490614402565b80156108115780601f106107e657610100808354040283529160200191610811565b820191906000526020600020905b8154815290600101906020018083116107f457829003601f168201915b5050505050905090565b600061082682611aac565b610865576040517f08c379a000000000000000000000000000000000000000000000000000000000815260040161085c90614083565b60405180910390fd5b6004600083815260200190815260200160002060009054906101000a900473ffffffffffffffffffffffffffffffffffffffff169050919050565b60006108ab82610e10565b90508073ffffffffffffffffffffffffffffffffffffffff168373ffffffffffffffffffffffffffffffffffffffff16141561091c576040517f08c379a000000000000000000000000000000000000000000000000000000000815260040161091390614123565b60405180910390fd5b8073ffffffffffffffffffffffffffffffffffffffff1661093b611b18565b73ffffffffffffffffffffffffffffffffffffffff16148061096a575061096981610964611b18565b611781565b5b6109a9576040517f08c379a00000000000000000000000000000000000000000000000000000000081526004016109a090613fc3565b60405180910390fd5b6109b38383611b20565b505050565b600a5481565b6109cf6109c9611b18565b82611bd9565b610a0e576040517f08c379a0000000000000000000000000000000000000000000000000000000008152600401610a0590614143565b60405180910390fd5b610a19838383611cb7565b505050565b60606000610a52610a2e84611f13565b604051602001610a3e9190613d02565b6040516020818303038152906040526120c0565b9050600e8054905081610a65919061447d565b9050600e8181548110610aa1577f4e487b7100000000000000000000000000000000000000000000000000000000600052603260045260246000fd5b906000526020600020018054610ab690614402565b80601f0160208091040260200160405190810160405280929190818152602001828054610ae290614402565b8015610b2f5780601f10610b0457610100808354040283529160200191610b2f565b820191906000526020600020905b815481529060010190602001808311610b1257829003601f168201915b5050505050915050919050565b610b44611b18565b73ffffffffffffffffffffffffffffffffffffffff16610b6261108e565b73ffffffffffffffffffffffffffffffffffffffff1614610bb8576040517f08c379a0000000000000000000000000000000000000000000000000000000008152600401610baf906140c3565b60405180910390fd5b610bc061108e565b73ffffffffffffffffffffffffffffffffffffffff166108fc479081150290604051600060405180830381858888f19350505050610c33576040517f08c379a0000000000000000000000000000000000000000000000000000000008152600401610c2a90613f23565b60405180910390fd5b565b610c3d611b18565b73ffffffffffffffffffffffffffffffffffffffff16610c5b61108e565b73ffffffffffffffffffffffffffffffffffffffff1614610cb1576040517f08c379a0000000000000000000000000000000000000000000000000000000008152600401610ca8906140c3565b60405180910390fd5b610cb96120f3565b565b610cd68383836040518060200160405280600081525061127e565b505050565b60606000610d0f610ceb84611f13565b604051602001610cfb9190613d46565b6040516020818303038152906040526120c0565b905060118054905081610d22919061447d565b905060118181548110610d5e577f4e487b7100000000000000000000000000000000000000000000000000000000600052603260045260246000fd5b906000526020600020018054610d7390614402565b80601f0160208091040260200160405190810160405280929190818152602001828054610d9f90614402565b8015610dec5780601f10610dc157610100808354040283529160200191610dec565b820191906000526020600020905b815481529060010190602001808311610dcf57829003601f168201915b5050505050915050919050565b6000600760009054906101000a900460ff16905090565b6000806002600084815260200190815260200160002060009054906101000a900473ffffffffffffffffffffffffffffffffffffffff169050600073ffffffffffffffffffffffffffffffffffffffff168173ffffffffffffffffffffffffffffffffffffffff161415610eb9576040517f08c379a0000000000000000000000000000000000000000000000000000000008152600401610eb090614003565b60405180910390fd5b80915050919050565b600b5481565b60008073ffffffffffffffffffffffffffffffffffffffff168273ffffffffffffffffffffffffffffffffffffffff161415610f39576040517f08c379a0000000000000000000000000000000000000000000000000000000008152600401610f3090613fe3565b60405180910390fd5b600360008373ffffffffffffffffffffffffffffffffffffffff1673ffffffffffffffffffffffffffffffffffffffff168152602001908152602001600020549050919050565b610f88611b18565b73ffffffffffffffffffffffffffffffffffffffff16610fa661108e565b73ffffffffffffffffffffffffffffffffffffffff1614610ffc576040517f08c379a0000000000000000000000000000000000000000000000000000000008152600401610ff3906140c3565b60405180910390fd5b6110066000612195565b565b611010611b18565b73ffffffffffffffffffffffffffffffffffffffff1661102e61108e565b73ffffffffffffffffffffffffffffffffffffffff1614611084576040517f08c379a000000000000000000000000000000000000000000000000000000000815260040161107b906140c3565b60405180910390fd5b61108c61225b565b565b6000600760019054906101000a900473ffffffffffffffffffffffffffffffffffffffff16905090565b6060600180546110c790614402565b80601f01602080910402602001604051908101604052809291908181526020018280546110f390614402565b80156111405780601f1061111557610100808354040283529160200191611140565b820191906000526020600020905b81548152906001019060200180831161112357829003601f168201915b5050505050905090565b61115c611155611b18565b83836122fe565b5050565b6060600061119461117084611f13565b6040516020016111809190613c9b565b6040516020818303038152906040526120c0565b9050600f80549050816111a7919061447d565b9050600f81815481106111e3577f4e487b7100000000000000000000000000000000000000000000000000000000600052603260045260246000fd5b9060005260206000200180546111f890614402565b80601f016020809104026020016040519081016040528092919081815260200182805461122490614402565b80156112715780601f1061124657610100808354040283529160200191611271565b820191906000526020600020905b81548152906001019060200180831161125457829003601f168201915b5050505050915050919050565b61128f611289611b18565b83611bd9565b6112ce576040517f08c379a00000000000000000000000000000000000000000000000000000000081526004016112c590614143565b60405180910390fd5b6112da8484848461246b565b50505050565b606060006113146112f084611f13565b6040516020016113009190613c79565b6040516020818303038152906040526120c0565b905060108054905081611327919061447d565b905060108181548110611363577f4e487b7100000000000000000000000000000000000000000000000000000000600052603260045260246000fd5b90600052602060002001805461137890614402565b80601f01602080910402602001604051908101604052809291908181526020018280546113a490614402565b80156113f15780601f106113c6576101008083540402835291602001916113f1565b820191906000526020600020905b8154815290600101906020018083116113d457829003601f168201915b5050505050915050919050565b606061140982611aac565b611448576040517f08c379a000000000000000000000000000000000000000000000000000000000815260040161143f90614063565b60405180910390fd5b600060066000848152602001908152602001600020805461146890614402565b80601f016020809104026020016040519081016040528092919081815260200182805461149490614402565b80156114e15780601f106114b6576101008083540402835291602001916114e1565b820191906000526020600020905b8154815290600101906020018083116114c457829003601f168201915b5050505050905060006114f26124c7565b905060008151141561150857819250505061154b565b60008251111561153d578082604051602001611525929190613bdb565b6040516020818303038152906040529250505061154b565b611546846124de565b925050505b919050565b60095481565b61155e610df9565b1561159e576040517f08c379a000000000000000000000000000000000000000000000000000000000815260040161159590613fa3565b60405180910390fd5b600954600a54106115ae57600080fd5b600b5434146115f2576040517f08c379a00000000000000000000000000000000000000000000000000000000081526004016115e9906140a3565b60405180910390fd5b60006115fe6008612585565b9050600061160b82610a1e565b9050600061161883611160565b90506000611625846112e0565b9050600083838360405160200161163e93929190613bff565b6040516020818303038152906040529050600061165a86610cdb565b90506000600c82600d856040516020016116779493929190613c30565b604051602081830303815290604052905060006116bc8461169784612593565b6040516020016116a8929190613cbd565b604051602081830303815290604052612593565b90506000816040516020016116d19190613d24565b60405160208183030381529060405290506116ec338a612751565b6116f6898261276f565b61170060086127e3565b6001600a60008282546117139190614237565b9250508190555061173d6040518060600160405280602581526020016145d8602591398a336127f9565b7febb98688741ffa4c7589bf325de30cf7becb63de567842e1ccdb6cb949fdc82c338a60405161176e929190613dcf565b60405180910390a1505050505050505050565b6000600560008473ffffffffffffffffffffffffffffffffffffffff1673ffffffffffffffffffffffffffffffffffffffff16815260200190815260200160002060008373ffffffffffffffffffffffffffffffffffffffff1673ffffffffffffffffffffffffffffffffffffffff16815260200190815260200160002060009054906101000a900460ff16905092915050565b61181d611b18565b73ffffffffffffffffffffffffffffffffffffffff1661183b61108e565b73ffffffffffffffffffffffffffffffffffffffff1614611891576040517f08c379a0000000000000000000000000000000000000000000000000000000008152600401611888906140c3565b60405180910390fd5b600073ffffffffffffffffffffffffffffffffffffffff168173ffffffffffffffffffffffffffffffffffffffff161415611901576040517f08c379a00000000000000000000000000000000000000000000000000000000081526004016118f890613ee3565b60405180910390fd5b61190a81612195565b50565b6119a3816040516024016119219190613e13565b6040516020818303038152906040527f41304fac000000000000000000000000000000000000000000000000000000007bffffffffffffffffffffffffffffffffffffffffffffffffffffffff19166020820180517bffffffffffffffffffffffffffffffffffffffffffffffffffffffff8381831617835250505050612898565b50565b611a3e82826040516024016119bc929190613e35565b6040516020818303038152906040527f319af333000000000000000000000000000000000000000000000000000000007bffffffffffffffffffffffffffffffffffffffffffffffffffffffff19166020820180517bffffffffffffffffffffffffffffffffffffffffffffffffffffffff8381831617835250505050612898565b5050565b60007f01ffc9a7000000000000000000000000000000000000000000000000000000007bffffffffffffffffffffffffffffffffffffffffffffffffffffffff1916827bffffffffffffffffffffffffffffffffffffffffffffffffffffffff1916149050919050565b60008073ffffffffffffffffffffffffffffffffffffffff166002600084815260200190815260200160002060009054906101000a900473ffffffffffffffffffffffffffffffffffffffff1673ffffffffffffffffffffffffffffffffffffffff1614159050919050565b600033905090565b816004600083815260200190815260200160002060006101000a81548173ffffffffffffffffffffffffffffffffffffffff021916908373ffffffffffffffffffffffffffffffffffffffff160217905550808273ffffffffffffffffffffffffffffffffffffffff16611b9383610e10565b73ffffffffffffffffffffffffffffffffffffffff167f8c5be1e5ebec7d5bd14f71427d1e84f3dd0314c0f7b2291e5b200ac8c7c3b92560405160405180910390a45050565b6000611be482611aac565b611c23576040517f08c379a0000000000000000000000000000000000000000000000000000000008152600401611c1a90613f83565b60405180910390fd5b6000611c2e83610e10565b90508073ffffffffffffffffffffffffffffffffffffffff168473ffffffffffffffffffffffffffffffffffffffff161480611c9d57508373ffffffffffffffffffffffffffffffffffffffff16611c858461081b565b73ffffffffffffffffffffffffffffffffffffffff16145b80611cae5750611cad8185611781565b5b91505092915050565b8273ffffffffffffffffffffffffffffffffffffffff16611cd782610e10565b73ffffffffffffffffffffffffffffffffffffffff1614611d2d576040517f08c379a0000000000000000000000000000000000000000000000000000000008152600401611d24906140e3565b60405180910390fd5b600073ffffffffffffffffffffffffffffffffffffffff168273ffffffffffffffffffffffffffffffffffffffff161415611d9d576040517f08c379a0000000000000000000000000000000000000000000000000000000008152600401611d9490613f43565b60405180910390fd5b611da88383836128c1565b611db3600082611b20565b6001600360008573ffffffffffffffffffffffffffffffffffffffff1673ffffffffffffffffffffffffffffffffffffffff1681526020019081526020016000206000828254611e039190614318565b925050819055506001600360008473ffffffffffffffffffffffffffffffffffffffff1673ffffffffffffffffffffffffffffffffffffffff1681526020019081526020016000206000828254611e5a9190614237565b92505081905550816002600083815260200190815260200160002060006101000a81548173ffffffffffffffffffffffffffffffffffffffff021916908373ffffffffffffffffffffffffffffffffffffffff160217905550808273ffffffffffffffffffffffffffffffffffffffff168473ffffffffffffffffffffffffffffffffffffffff167fddf252ad1be2c89b69c2b068fc378daa952ba7f163c4a11628f55a4df523b3ef60405160405180910390a4505050565b60606000821415611f5b576040518060400160405280600181526020017f300000000000000000000000000000000000000000000000000000000000000081525090506120bb565b600082905060005b60008214611f8d578080611f7690614434565b915050600a82611f86919061428d565b9150611f63565b60008167ffffffffffffffff811115611fcf577f4e487b7100000000000000000000000000000000000000000000000000000000600052604160045260246000fd5b6040519080825280601f01601f1916602001820160405280156120015781602001600182028036833780820191505090505b5090505b600085146120b45760018261201a9190614318565b9150600a85612029919061447d565b60306120359190614237565b60f81b818381518110612071577f4e487b7100000000000000000000000000000000000000000000000000000000600052603260045260246000fd5b60200101907effffffffffffffffffffffffffffffffffffffffffffffffffffffffffffff1916908160001a905350600a856120ad919061428d565b9450612005565b8093505050505b919050565b6000816040516020016120d39190613bc4565b6040516020818303038152906040528051906020012060001c9050919050565b6120fb610df9565b61213a576040517f08c379a000000000000000000000000000000000000000000000000000000000815260040161213190613ea3565b60405180910390fd5b6000600760006101000a81548160ff0219169083151502179055507f5db9ee0a495bf2e6ff9c91a7834c1ba4fdd244a5e8aa4e537bd38aeae4b073aa61217e611b18565b60405161218b9190613d68565b60405180910390a1565b6000600760019054906101000a900473ffffffffffffffffffffffffffffffffffffffff16905081600760016101000a81548173ffffffffffffffffffffffffffffffffffffffff021916908373ffffffffffffffffffffffffffffffffffffffff1602179055508173ffffffffffffffffffffffffffffffffffffffff168173ffffffffffffffffffffffffffffffffffffffff167f8be0079c531659141344cd1fd0a4f28419497f9722a3daafe3b4186f6b6457e060405160405180910390a35050565b612263610df9565b156122a3576040517f08c379a000000000000000000000000000000000000000000000000000000000815260040161229a90613fa3565b60405180910390fd5b6001600760006101000a81548160ff0219169083151502179055507f62e78cea01bee320cd4e420270b5ea74000d11b0c9f74754ebdbfc544b05a2586122e7611b18565b6040516122f49190613d68565b60405180910390a1565b8173ffffffffffffffffffffffffffffffffffffffff168373ffffffffffffffffffffffffffffffffffffffff16141561236d576040517f08c379a000000000000000000000000000000000000000000000000000000000815260040161236490613f63565b60405180910390fd5b80600560008573ffffffffffffffffffffffffffffffffffffffff1673ffffffffffffffffffffffffffffffffffffffff16815260200190815260200160002060008473ffffffffffffffffffffffffffffffffffffffff1673ffffffffffffffffffffffffffffffffffffffff16815260200190815260200160002060006101000a81548160ff0219169083151502179055508173ffffffffffffffffffffffffffffffffffffffff168373ffffffffffffffffffffffffffffffffffffffff167f17307eab39ab6107e8899845ad3d59bd9653f200f220920489ca2b5937696c318360405161245e9190613df8565b60405180910390a3505050565b612476848484611cb7565b612482848484846128c6565b6124c1576040517f08c379a00000000000000000000000000000000000000000000000000000000081526004016124b890613ec3565b60405180910390fd5b50505050565b606060405180602001604052806000815250905090565b60606124e982611aac565b612528576040517f08c379a000000000000000000000000000000000000000000000000000000000815260040161251f90614103565b60405180910390fd5b60006125326124c7565b90506000815111612552576040518060200160405280600081525061257d565b8061255c84611f13565b60405160200161256d929190613bdb565b6040516020818303038152906040525b915050919050565b600081600001549050919050565b606060008251905060008114156125bc576040518060200160405280600081525091505061274c565b600060036002836125cd9190614237565b6125d7919061428d565b60046125e391906142be565b905060006020826125f49190614237565b67ffffffffffffffff811115612633577f4e487b7100000000000000000000000000000000000000000000000000000000600052604160045260246000fd5b6040519080825280601f01601f1916602001820160405280156126655781602001600182028036833780820191505090505b50905060006040518060600160405280604081526020016145fd604091399050600181016020830160005b868110156127095760038101905062ffffff818a015116603f8160121c168401518060081b905060ff603f83600c1c1686015116810190508060081b905060ff603f8360061c1686015116810190508060081b905060ff603f831686015116810190508060e01b90508084526004840193505050612690565b50600386066001811461272357600281146127335761273e565b613d3d60f01b600283035261273e565b603d60f81b60018303525b508484525050819450505050505b919050565b61276b828260405180602001604052806000815250612a5d565b5050565b61277882611aac565b6127b7576040517f08c379a00000000000000000000000000000000000000000000000000000000081526004016127ae90614023565b60405180910390fd5b806006600084815260200190815260200160002090805190602001906127de929190612c99565b505050565b6001816000016000828254019250508190555050565b61289383838360405160240161281193929190613e65565b6040516020818303038152906040527fe3849f79000000000000000000000000000000000000000000000000000000007bffffffffffffffffffffffffffffffffffffffffffffffffffffffff19166020820180517bffffffffffffffffffffffffffffffffffffffffffffffffffffffff8381831617835250505050612898565b505050565b60008151905060006a636f6e736f6c652e6c6f679050602083016000808483855afa5050505050565b505050565b60006128e78473ffffffffffffffffffffffffffffffffffffffff16612ab8565b15612a50578373ffffffffffffffffffffffffffffffffffffffff1663150b7a02612910611b18565b8786866040518563ffffffff1660e01b81526004016129329493929190613d83565b602060405180830381600087803b15801561294c57600080fd5b505af192505050801561297d57506040513d601f19601f8201168201806040525081019061297a9190612fdd565b60015b612a00573d80600081146129ad576040519150601f19603f3d011682016040523d82523d6000602084013e6129b2565b606091505b506000815114156129f8576040517f08c379a00000000000000000000000000000000000000000000000000000000081526004016129ef90613ec3565b60405180910390fd5b805181602001fd5b63150b7a0260e01b7bffffffffffffffffffffffffffffffffffffffffffffffffffffffff1916817bffffffffffffffffffffffffffffffffffffffffffffffffffffffff191614915050612a55565b600190505b949350505050565b612a678383612acb565b612a7460008484846128c6565b612ab3576040517f08c379a0000000000000000000000000000000000000000000000000000000008152600401612aaa90613ec3565b60405180910390fd5b505050565b600080823b905060008111915050919050565b600073ffffffffffffffffffffffffffffffffffffffff168273ffffffffffffffffffffffffffffffffffffffff161415612b3b576040517f08c379a0000000000000000000000000000000000000000000000000000000008152600401612b3290614043565b60405180910390fd5b612b4481611aac565b15612b84576040517f08c379a0000000000000000000000000000000000000000000000000000000008152600401612b7b90613f03565b60405180910390fd5b612b90600083836128c1565b6001600360008473ffffffffffffffffffffffffffffffffffffffff1673ffffffffffffffffffffffffffffffffffffffff1681526020019081526020016000206000828254612be09190614237565b92505081905550816002600083815260200190815260200160002060006101000a81548173ffffffffffffffffffffffffffffffffffffffff021916908373ffffffffffffffffffffffffffffffffffffffff160217905550808273ffffffffffffffffffffffffffffffffffffffff16600073ffffffffffffffffffffffffffffffffffffffff167fddf252ad1be2c89b69c2b068fc378daa952ba7f163c4a11628f55a4df523b3ef60405160405180910390a45050565b828054612ca590614402565b90600052602060002090601f016020900481019282612cc75760008555612d0e565b82601f10612ce057805160ff1916838001178555612d0e565b82800160010185558215612d0e579182015b82811115612d0d578251825591602001919060010190612cf2565b5b509050612d1b9190612d1f565b5090565b5b80821115612d38576000816000905550600101612d20565b5090565b6000612d4f612d4a846141af565b61417e565b905082815260208101848484011115612d6757600080fd5b612d728482856143c0565b509392505050565b600081359050612d898161457b565b92915050565b600081359050612d9e81614592565b92915050565b600081359050612db3816145a9565b92915050565b600081519050612dc8816145a9565b92915050565b600082601f830112612ddf57600080fd5b8135612def848260208601612d3c565b91505092915050565b600081359050612e07816145c0565b92915050565b600060208284031215612e1f57600080fd5b6000612e2d84828501612d7a565b91505092915050565b60008060408385031215612e4957600080fd5b6000612e5785828601612d7a565b9250506020612e6885828601612d7a565b9150509250929050565b600080600060608486031215612e8757600080fd5b6000612e9586828701612d7a565b9350506020612ea686828701612d7a565b9250506040612eb786828701612df8565b9150509250925092565b60008060008060808587031215612ed757600080fd5b6000612ee587828801612d7a565b9450506020612ef687828801612d7a565b9350506040612f0787828801612df8565b925050606085013567ffffffffffffffff811115612f2457600080fd5b612f3087828801612dce565b91505092959194509250565b60008060408385031215612f4f57600080fd5b6000612f5d85828601612d7a565b9250506020612f6e85828601612d8f565b9150509250929050565b60008060408385031215612f8b57600080fd5b6000612f9985828601612d7a565b9250506020612faa85828601612df8565b9150509250929050565b600060208284031215612fc657600080fd5b6000612fd484828501612da4565b91505092915050565b600060208284031215612fef57600080fd5b6000612ffd84828501612db9565b91505092915050565b60006020828403121561301857600080fd5b600061302684828501612df8565b91505092915050565b6130388161434c565b82525050565b6130478161435e565b82525050565b6000613058826141f4565b613062818561420a565b93506130728185602086016143cf565b61307b8161456a565b840191505092915050565b6000613091826141ff565b61309b818561421b565b93506130ab8185602086016143cf565b6130b48161456a565b840191505092915050565b60006130ca826141ff565b6130d4818561422c565b93506130e48185602086016143cf565b80840191505092915050565b600081546130fd81614402565b613107818661422c565b94506001821660008114613122576001811461313357613166565b60ff19831686528186019350613166565b61313c856141df565b60005b8381101561315e5781548189015260018201915060208101905061313f565b838801955050505b50505092915050565b600061317c60148361421b565b91507f5061757361626c653a206e6f74207061757365640000000000000000000000006000830152602082019050919050565b60006131bc60328361421b565b91507f4552433732313a207472616e7366657220746f206e6f6e20455243373231526560008301527f63656976657220696d706c656d656e74657200000000000000000000000000006020830152604082019050919050565b600061322260268361421b565b91507f4f776e61626c653a206e6577206f776e657220697320746865207a65726f206160008301527f64647265737300000000000000000000000000000000000000000000000000006020830152604082019050919050565b6000613288601c8361421b565b91507f4552433732313a20746f6b656e20616c7265616479206d696e746564000000006000830152602082019050919050565b60006132c8600f8361421b565b91507f5769746864726177206661696c656400000000000000000000000000000000006000830152602082019050919050565b6000613308600a8361422c565b91507f54484952445f574f5244000000000000000000000000000000000000000000006000830152600a82019050919050565b600061334860248361421b565b91507f4552433732313a207472616e7366657220746f20746865207a65726f2061646460008301527f72657373000000000000000000000000000000000000000000000000000000006020830152604082019050919050565b60006133ae60198361421b565b91507f4552433732313a20617070726f766520746f2063616c6c6572000000000000006000830152602082019050919050565b60006133ee60638361422c565b91507f222c20226465736372697074696f6e223a20224120686967686c79206163636c60008301527f61696d656420636f6c6c656374696f6e206f6620737175617265732e222c202260208301527f696d616765223a2022646174613a696d6167652f7376672b786d6c3b6261736560408301527f36342c00000000000000000000000000000000000000000000000000000000006060830152606382019050919050565b60006134a0600b8361422c565b91507f5345434f4e445f574f52440000000000000000000000000000000000000000006000830152600b82019050919050565b60006134e0602c8361421b565b91507f4552433732313a206f70657261746f7220717565727920666f72206e6f6e657860008301527f697374656e7420746f6b656e00000000000000000000000000000000000000006020830152604082019050919050565b6000613546600d8361422c565b91507f3c2f746578743e3c2f7376673e000000000000000000000000000000000000006000830152600d82019050919050565b600061358660108361421b565b91507f5061757361626c653a20706175736564000000000000000000000000000000006000830152602082019050919050565b60006135c660388361421b565b91507f4552433732313a20617070726f76652063616c6c6572206973206e6f74206f7760008301527f6e6572206e6f7220617070726f76656420666f7220616c6c00000000000000006020830152604082019050919050565b600061362c602a8361421b565b91507f4552433732313a2062616c616e636520717565727920666f7220746865207a6560008301527f726f2061646472657373000000000000000000000000000000000000000000006020830152604082019050919050565b600061369260298361421b565b91507f4552433732313a206f776e657220717565727920666f72206e6f6e657869737460008301527f656e7420746f6b656e00000000000000000000000000000000000000000000006020830152604082019050919050565b60006136f8602e8361421b565b91507f45524337323155524953746f726167653a2055524920736574206f66206e6f6e60008301527f6578697374656e7420746f6b656e0000000000000000000000000000000000006020830152604082019050919050565b600061375e60028361422c565b91507f227d0000000000000000000000000000000000000000000000000000000000006000830152600282019050919050565b600061379e60208361421b565b91507f4552433732313a206d696e7420746f20746865207a65726f20616464726573736000830152602082019050919050565b60006137de60318361421b565b91507f45524337323155524953746f726167653a2055524920717565727920666f722060008301527f6e6f6e6578697374656e7420746f6b656e0000000000000000000000000000006020830152604082019050919050565b6000613844602c8361421b565b91507f4552433732313a20617070726f76656420717565727920666f72206e6f6e657860008301527f697374656e7420746f6b656e00000000000000000000000000000000000000006020830152604082019050919050565b60006138aa60178361421b565b91507f4d696e7420707269636520697320302e303031204554480000000000000000006000830152602082019050919050565b60006138ea60208361421b565b91507f4f776e61626c653a2063616c6c6572206973206e6f7420746865206f776e65726000830152602082019050919050565b600061392a60298361421b565b91507f4552433732313a207472616e73666572206f6620746f6b656e2074686174206960008301527f73206e6f74206f776e00000000000000000000000000000000000000000000006020830152604082019050919050565b6000613990602f8361421b565b91507f4552433732314d657461646174613a2055524920717565727920666f72206e6f60008301527f6e6578697374656e7420746f6b656e00000000000000000000000000000000006020830152604082019050919050565b60006139f6600a8361422c565b91507f7b226e616d65223a2022000000000000000000000000000000000000000000006000830152600a82019050919050565b6000613a3660218361421b565b91507f4552433732313a20617070726f76616c20746f2063757272656e74206f776e6560008301527f72000000000000000000000000000000000000000000000000000000000000006020830152604082019050919050565b6000613a9c600a8361422c565b91507f46495253545f574f5244000000000000000000000000000000000000000000006000830152600a82019050919050565b6000613adc601d8361422c565b91507f646174613a6170706c69636174696f6e2f6a736f6e3b6261736536342c0000006000830152601d82019050919050565b6000613b1c60318361421b565b91507f4552433732313a207472616e736665722063616c6c6572206973206e6f74206f60008301527f776e6572206e6f7220617070726f7665640000000000000000000000000000006020830152604082019050919050565b6000613b8260058361422c565b91507f434f4c4f520000000000000000000000000000000000000000000000000000006000830152600582019050919050565b613bbe816143b6565b82525050565b6000613bd082846130bf565b915081905092915050565b6000613be782856130bf565b9150613bf382846130bf565b91508190509392505050565b6000613c0b82866130bf565b9150613c1782856130bf565b9150613c2382846130bf565b9150819050949350505050565b6000613c3c82876130f0565b9150613c4882866130bf565b9150613c5482856130f0565b9150613c6082846130bf565b9150613c6b82613539565b915081905095945050505050565b6000613c84826132fb565b9150613c9082846130bf565b915081905092915050565b6000613ca682613493565b9150613cb282846130bf565b915081905092915050565b6000613cc8826139e9565b9150613cd482856130bf565b9150613cdf826133e1565b9150613ceb82846130bf565b9150613cf682613751565b91508190509392505050565b6000613d0d82613a8f565b9150613d1982846130bf565b915081905092915050565b6000613d2f82613acf565b9150613d3b82846130bf565b915081905092915050565b6000613d5182613b75565b9150613d5d82846130bf565b915081905092915050565b6000602082019050613d7d600083018461302f565b92915050565b6000608082019050613d98600083018761302f565b613da5602083018661302f565b613db26040830185613bb5565b8181036060830152613dc4818461304d565b905095945050505050565b6000604082019050613de4600083018561302f565b613df16020830184613bb5565b9392505050565b6000602082019050613e0d600083018461303e565b92915050565b60006020820190508181036000830152613e2d8184613086565b905092915050565b60006040820190508181036000830152613e4f8185613086565b9050613e5e602083018461302f565b9392505050565b60006060820190508181036000830152613e7f8186613086565b9050613e8e6020830185613bb5565b613e9b604083018461302f565b949350505050565b60006020820190508181036000830152613ebc8161316f565b9050919050565b60006020820190508181036000830152613edc816131af565b9050919050565b60006020820190508181036000830152613efc81613215565b9050919050565b60006020820190508181036000830152613f1c8161327b565b9050919050565b60006020820190508181036000830152613f3c816132bb565b9050919050565b60006020820190508181036000830152613f5c8161333b565b9050919050565b60006020820190508181036000830152613f7c816133a1565b9050919050565b60006020820190508181036000830152613f9c816134d3565b9050919050565b60006020820190508181036000830152613fbc81613579565b9050919050565b60006020820190508181036000830152613fdc816135b9565b9050919050565b60006020820190508181036000830152613ffc8161361f565b9050919050565b6000602082019050818103600083015261401c81613685565b9050919050565b6000602082019050818103600083015261403c816136eb565b9050919050565b6000602082019050818103600083015261405c81613791565b9050919050565b6000602082019050818103600083015261407c816137d1565b9050919050565b6000602082019050818103600083015261409c81613837565b9050919050565b600060208201905081810360008301526140bc8161389d565b9050919050565b600060208201905081810360008301526140dc816138dd565b9050919050565b600060208201905081810360008301526140fc8161391d565b9050919050565b6000602082019050818103600083015261411c81613983565b9050919050565b6000602082019050818103600083015261413c81613a29565b9050919050565b6000602082019050818103600083015261415c81613b0f565b9050919050565b60006020820190506141786000830184613bb5565b92915050565b6000604051905081810181811067ffffffffffffffff821117156141a5576141a461453b565b5b8060405250919050565b600067ffffffffffffffff8211156141ca576141c961453b565b5b601f19601f8301169050602081019050919050565b60008190508160005260206000209050919050565b600081519050919050565b600081519050919050565b600082825260208201905092915050565b600082825260208201905092915050565b600081905092915050565b6000614242826143b6565b915061424d836143b6565b9250827fffffffffffffffffffffffffffffffffffffffffffffffffffffffffffffffff03821115614282576142816144ae565b5b828201905092915050565b6000614298826143b6565b91506142a3836143b6565b9250826142b3576142b26144dd565b5b828204905092915050565b60006142c9826143b6565b91506142d4836143b6565b9250817fffffffffffffffffffffffffffffffffffffffffffffffffffffffffffffffff048311821515161561430d5761430c6144ae565b5b828202905092915050565b6000614323826143b6565b915061432e836143b6565b925082821015614341576143406144ae565b5b828203905092915050565b600061435782614396565b9050919050565b60008115159050919050565b60007fffffffff0000000000000000000000000000000000000000000000000000000082169050919050565b600073ffffffffffffffffffffffffffffffffffffffff82169050919050565b6000819050919050565b82818337600083830152505050565b60005b838110156143ed5780820151818401526020810190506143d2565b838111156143fc576000848401525b50505050565b6000600282049050600182168061441a57607f821691505b6020821081141561442e5761442d61450c565b5b50919050565b600061443f826143b6565b91507fffffffffffffffffffffffffffffffffffffffffffffffffffffffffffffffff821415614472576144716144ae565b5b600182019050919050565b6000614488826143b6565b9150614493836143b6565b9250826144a3576144a26144dd565b5b828206905092915050565b7f4e487b7100000000000000000000000000000000000000000000000000000000600052601160045260246000fd5b7f4e487b7100000000000000000000000000000000000000000000000000000000600052601260045260246000fd5b7f4e487b7100000000000000000000000000000000000000000000000000000000600052602260045260246000fd5b7f4e487b7100000000000000000000000000000000000000000000000000000000600052604160045260246000fd5b6000601f19601f8301169050919050565b6145848161434c565b811461458f57600080fd5b50565b61459b8161435e565b81146145a657600080fd5b50565b6145b28161436a565b81146145bd57600080fd5b50565b6145c9816143b6565b81146145d457600080fd5b5056fe416e204e465420772f20494420257320686173206265656e206d696e74656420746f2025734142434445464748494a4b4c4d4e4f505152535455565758595a6162636465666768696a6b6c6d6e6f707172737475767778797a303132333435363738392b2fa264697066735822122022686af57f33b06bed01100ec46d215d43db94008c940f0594b629bfed4fc55564736f6c634300080000333c73766720786d6c6e733d27687474703a2f2f7777772e77332e6f72672f323030302f73766727207072657365727665417370656374526174696f3d27784d696e594d696e206d656574272076696577426f783d273020302033353020333530273e3c7374796c653e2e62617365207b2066696c6c3a2077686974653b20666f6e742d66616d696c793a2073657269663b20666f6e742d73697a653a20323470783b207d3c2f7374796c653e3c726563742077696474683d273130302527206865696768743d2731303025272066696c6c3d27272f3e3c7465787420783d273530252720793d273530252720636c6173733d27626173652720646f6d696e616e742d626173656c696e653d276d6964646c652720746578742d616e63686f723d276d6964646c65273e",
  "linkReferences": {},
  "deployedLinkReferences": {}
}