{
  "_format": "hh-sol-artifact-1",
  "contractName": "RandomTextNFT",
  "sourceName": "contracts/MyEpicNFT.sol",
  "abi": [
    {
      "inputs": [],
      "stateMutability": "nonpayable",
      "type": "constructor"
    },
    {
      "anonymous": false,
      "inputs": [
        {
          "indexed": true,
          "internalType": "address",
          "name": "owner",
          "type": "address"
        },
        {
          "indexed": true,
          "internalType": "address",
          "name": "approved",
          "type": "address"
        },
        {
          "indexed": true,
          "internalType": "uint256",
          "name": "tokenId",
          "type": "uint256"
        }
      ],
      "name": "Approval",
      "type": "event"
    },
    {
      "anonymous": false,
      "inputs": [
        {
          "indexed": true,
          "internalType": "address",
          "name": "owner",
          "type": "address"
        },
        {
          "indexed": true,
          "internalType": "address",
          "name": "operator",
          "type": "address"
        },
        {
          "indexed": false,
          "internalType": "bool",
          "name": "approved",
          "type": "bool"
        }
      ],
      "name": "ApprovalForAll",
      "type": "event"
    },
    {
      "anonymous": false,
      "inputs": [
        {
          "indexed": false,
          "internalType": "address",
          "name": "sender",
          "type": "address"
        },
        {
          "indexed": false,
          "internalType": "uint256",
          "name": "tokenId",
          "type": "uint256"
        }
      ],
      "name": "NewEpicNFTMinted",
      "type": "event"
    },
    {
      "anonymous": false,
      "inputs": [
        {
          "indexed": true,
          "internalType": "address",
          "name": "previousOwner",
          "type": "address"
        },
        {
          "indexed": true,
          "internalType": "address",
          "name": "newOwner",
          "type": "address"
        }
      ],
      "name": "OwnershipTransferred",
      "type": "event"
    },
    {
      "anonymous": false,
      "inputs": [
        {
          "indexed": false,
          "internalType": "address",
          "name": "account",
          "type": "address"
        }
      ],
      "name": "Paused",
      "type": "event"
    },
    {
      "anonymous": false,
      "inputs": [
        {
          "indexed": true,
          "internalType": "address",
          "name": "from",
          "type": "address"
        },
        {
          "indexed": true,
          "internalType": "address",
          "name": "to",
          "type": "address"
        },
        {
          "indexed": true,
          "internalType": "uint256",
          "name": "tokenId",
          "type": "uint256"
        }
      ],
      "name": "Transfer",
      "type": "event"
    },
    {
      "anonymous": false,
      "inputs": [
        {
          "indexed": false,
          "internalType": "address",
          "name": "account",
          "type": "address"
        }
      ],
      "name": "Unpaused",
      "type": "event"
    },
    {
      "inputs": [
        {
          "internalType": "address",
          "name": "to",
          "type": "address"
        },
        {
          "internalType": "uint256",
          "name": "tokenId",
          "type": "uint256"
        }
      ],
      "name": "approve",
      "outputs": [],
      "stateMutability": "nonpayable",
      "type": "function"
    },
    {
      "inputs": [
        {
          "internalType": "address",
          "name": "owner",
          "type": "address"
        }
      ],
      "name": "balanceOf",
      "outputs": [
        {
          "internalType": "uint256",
          "name": "",
          "type": "uint256"
        }
      ],
      "stateMutability": "view",
      "type": "function"
    },
    {
      "inputs": [
        {
          "internalType": "uint256",
          "name": "tokenId",
          "type": "uint256"
        }
      ],
      "name": "getApproved",
      "outputs": [
        {
          "internalType": "address",
          "name": "",
          "type": "address"
        }
      ],
      "stateMutability": "view",
      "type": "function"
    },
    {
      "inputs": [
        {
          "internalType": "address",
          "name": "owner",
          "type": "address"
        },
        {
          "internalType": "address",
          "name": "operator",
          "type": "address"
        }
      ],
      "name": "isApprovedForAll",
      "outputs": [
        {
          "internalType": "bool",
          "name": "",
          "type": "bool"
        }
      ],
      "stateMutability": "view",
      "type": "function"
    },
    {
      "inputs": [],
      "name": "makeAnEpicNFT",
      "outputs": [],
      "stateMutability": "payable",
      "type": "function"
    },
    {
      "inputs": [],
      "name": "maxSupply",
      "outputs": [
        {
          "internalType": "uint256",
          "name": "",
          "type": "uint256"
        }
      ],
      "stateMutability": "view",
      "type": "function"
    },
    {
      "inputs": [],
      "name": "mintPrice",
      "outputs": [
        {
          "internalType": "uint256",
          "name": "",
          "type": "uint256"
        }
      ],
      "stateMutability": "view",
      "type": "function"
    },
    {
      "inputs": [],
      "name": "name",
      "outputs": [
        {
          "internalType": "string",
          "name": "",
          "type": "string"
        }
      ],
      "stateMutability": "view",
      "type": "function"
    },
    {
      "inputs": [],
      "name": "owner",
      "outputs": [
        {
          "internalType": "address",
          "name": "",
          "type": "address"
        }
      ],
      "stateMutability": "view",
      "type": "function"
    },
    {
      "inputs": [
        {
          "internalType": "uint256",
          "name": "tokenId",
          "type": "uint256"
        }
      ],
      "name": "ownerOf",
      "outputs": [
        {
          "internalType": "address",
          "name": "",
          "type": "address"
        }
      ],
      "stateMutability": "view",
      "type": "function"
    },
    {
      "inputs": [],
      "name": "pause",
      "outputs": [],
      "stateMutability": "nonpayable",
      "type": "function"
    },
    {
      "inputs": [],
      "name": "paused",
      "outputs": [
        {
          "internalType": "bool",
          "name": "",
          "type": "bool"
        }
      ],
      "stateMutability": "view",
      "type": "function"
    },
    {
      "inputs": [
        {
          "internalType": "uint256",
          "name": "tokenId",
          "type": "uint256"
        }
      ],
      "name": "pickRandomColor",
      "outputs": [
        {
          "internalType": "string",
          "name": "",
          "type": "string"
        }
      ],
      "stateMutability": "view",
      "type": "function"
    },
    {
      "inputs": [
        {
          "internalType": "uint256",
          "name": "tokenId",
          "type": "uint256"
        }
      ],
      "name": "pickRandomFirstWord",
      "outputs": [
        {
          "internalType": "string",
          "name": "",
          "type": "string"
        }
      ],
      "stateMutability": "view",
      "type": "function"
    },
    {
      "inputs": [
        {
          "internalType": "uint256",
          "name": "tokenId",
          "type": "uint256"
        }
      ],
      "name": "pickRandomSecondWord",
      "outputs": [
        {
          "internalType": "string",
          "name": "",
          "type": "string"
        }
      ],
      "stateMutability": "view",
      "type": "function"
    },
    {
      "inputs": [
        {
          "internalType": "uint256",
          "name": "tokenId",
          "type": "uint256"
        }
      ],
      "name": "pickRandomThirdWord",
      "outputs": [
        {
          "internalType": "string",
          "name": "",
          "type": "string"
        }
      ],
      "stateMutability": "view",
      "type": "function"
    },
    {
      "inputs": [],
      "name": "renounceOwnership",
      "outputs": [],
      "stateMutability": "nonpayable",
      "type": "function"
    },
    {
      "inputs": [
        {
          "internalType": "address",
          "name": "from",
          "type": "address"
        },
        {
          "internalType": "address",
          "name": "to",
          "type": "address"
        },
        {
          "internalType": "uint256",
          "name": "tokenId",
          "type": "uint256"
        }
      ],
      "name": "safeTransferFrom",
      "outputs": [],
      "stateMutability": "nonpayable",
      "type": "function"
    },
    {
      "inputs": [
        {
          "internalType": "address",
          "name": "from",
          "type": "address"
        },
        {
          "internalType": "address",
          "name": "to",
          "type": "address"
        },
        {
          "internalType": "uint256",
          "name": "tokenId",
          "type": "uint256"
        },
        {
          "internalType": "bytes",
          "name": "_data",
          "type": "bytes"
        }
      ],
      "name": "safeTransferFrom",
      "outputs": [],
      "stateMutability": "nonpayable",
      "type": "function"
    },
    {
      "inputs": [
        {
          "internalType": "address",
          "name": "operator",
          "type": "address"
        },
        {
          "internalType": "bool",
          "name": "approved",
          "type": "bool"
        }
      ],
      "name": "setApprovalForAll",
      "outputs": [],
      "stateMutability": "nonpayable",
      "type": "function"
    },
    {
      "inputs": [
        {
          "internalType": "bytes4",
          "name": "interfaceId",
          "type": "bytes4"
        }
      ],
      "name": "supportsInterface",
      "outputs": [
        {
          "internalType": "bool",
          "name": "",
          "type": "bool"
        }
      ],
      "stateMutability": "view",
      "type": "function"
    },
    {
      "inputs": [],
      "name": "symbol",
      "outputs": [
        {
          "internalType": "string",
          "name": "",
          "type": "string"
        }
      ],
      "stateMutability": "view",
      "type": "function"
    },
    {
      "inputs": [
        {
          "internalType": "uint256",
          "name": "tokenId",
          "type": "uint256"
        }
      ],
      "name": "tokenURI",
      "outputs": [
        {
          "internalType": "string",
          "name": "",
          "type": "string"
        }
      ],
      "stateMutability": "view",
      "type": "function"
    },
    {
      "inputs": [],
      "name": "totalSupply",
      "outputs": [
        {
          "internalType": "uint256",
          "name": "",
          "type": "uint256"
        }
      ],
      "stateMutability": "view",
      "type": "function"
    },
    {
      "inputs": [
        {
          "internalType": "address",
          "name": "from",
          "type": "address"
        },
        {
          "internalType": "address",
          "name": "to",
          "type": "address"
        },
        {
          "internalType": "uint256",
          "name": "tokenId",
          "type": "uint256"
        }
      ],
      "name": "transferFrom",
      "outputs": [],
      "stateMutability": "nonpayable",
      "type": "function"
    },
    {
      "inputs": [
        {
          "internalType": "address",
          "name": "newOwner",
          "type": "address"
        }
      ],
      "name": "transferOwnership",
      "outputs": [],
      "stateMutability": "nonpayable",
      "type": "function"
    },
    {
      "inputs": [],
      "name": "unpause",
      "outputs": [],
      "stateMutability": "nonpayable",
      "type": "function"
    },
    {
      "inputs": [],
      "name": "withdraw",
      "outputs": [],
      "stateMutability": "nonpayable",
      "type": "function"
    }
  ],
  "bytecode": "0x608060405260326009556000600a5566038d7ea4c68000600b5560405180610100016040528060d38152602001620054c460d39139600c90805190602001906200004b92919062000a75565b506040518060800160405280605681526020016200559760569139600d90805190602001906200007d92919062000a75565b506040518060c001604052806040518060400160405280600681526020017f59656c6c6f77000000000000000000000000000000000000000000000000000081525081526020016040518060400160405280600381526020017f526564000000000000000000000000000000000000000000000000000000000081525081526020016040518060400160405280600481526020017f50696e6b0000000000000000000000000000000000000000000000000000000081525081526020016040518060400160405280600581526020017f426c61636b00000000000000000000000000000000000000000000000000000081525081526020016040518060400160405280600481526020017f426c75650000000000000000000000000000000000000000000000000000000081525081526020016040518060400160405280600581526020017f477265656e000000000000000000000000000000000000000000000000000000815250815250600e906006620001fb92919062000b06565b506040518060c001604052806040518060400160405280600381526020017f466174000000000000000000000000000000000000000000000000000000000081525081526020016040518060400160405280600681526020017f536b696e6e79000000000000000000000000000000000000000000000000000081525081526020016040518060400160405280600481526020017f536c696d0000000000000000000000000000000000000000000000000000000081525081526020016040518060400160405280600581526020017f53686f727400000000000000000000000000000000000000000000000000000081525081526020016040518060400160405280600481526020017f54616c6c0000000000000000000000000000000000000000000000000000000081525081526020016040518060400160405280600381526020017f4669740000000000000000000000000000000000000000000000000000000000815250815250600f9060066200037992919062000b06565b506040518060c001604052806040518060400160405280600381526020017f477579000000000000000000000000000000000000000000000000000000000081525081526020016040518060400160405280600481526020017f4c6164790000000000000000000000000000000000000000000000000000000081525081526020016040518060400160405280600481526020017f536869740000000000000000000000000000000000000000000000000000000081525081526020016040518060400160405280600381526020017f536972000000000000000000000000000000000000000000000000000000000081525081526020016040518060400160405280600381526020017f4b6964000000000000000000000000000000000000000000000000000000000081525081526020016040518060400160405280600381526020017f41706500000000000000000000000000000000000000000000000000000000008152508152506010906006620004f792919062000b06565b506040518060c001604052806040518060400160405280600381526020017f726564000000000000000000000000000000000000000000000000000000000081525081526020016040518060400160405280600781526020017f233038433241380000000000000000000000000000000000000000000000000081525081526020016040518060400160405280600581526020017f626c61636b00000000000000000000000000000000000000000000000000000081525081526020016040518060400160405280600681526020017f79656c6c6f77000000000000000000000000000000000000000000000000000081525081526020016040518060400160405280600481526020017f626c75650000000000000000000000000000000000000000000000000000000081525081526020016040518060400160405280600581526020017f677265656e00000000000000000000000000000000000000000000000000000081525081525060119060066200067592919062000b06565b503480156200068357600080fd5b506040518060400160405280600d81526020017f52616e646f6d546578744e4654000000000000000000000000000000000000008152506040518060400160405280600581526020017f52544e465400000000000000000000000000000000000000000000000000000081525081600090805190602001906200070892919062000a75565b5080600190805190602001906200072192919062000a75565b5050506000600760006101000a81548160ff0219169083151502179055506200075f620007536200080b60201b60201c565b6200081360201b60201c565b620007aa6040518060400160405280601f81526020017f52616e646f6d546578744e465420636f6e7472616374206465706c6f79656400815250620008d960201b620019161760201c565b620008056040518060400160405280600e81526020017f436f6e7472616374206f776e6572000000000000000000000000000000000000815250620007f46200097c60201b60201c565b620009a660201b620019af1760201c565b62000da0565b600033905090565b6000600760019054906101000a900473ffffffffffffffffffffffffffffffffffffffff16905081600760016101000a81548173ffffffffffffffffffffffffffffffffffffffff021916908373ffffffffffffffffffffffffffffffffffffffff1602179055508173ffffffffffffffffffffffffffffffffffffffff168173ffffffffffffffffffffffffffffffffffffffff167f8be0079c531659141344cd1fd0a4f28419497f9722a3daafe3b4186f6b6457e060405160405180910390a35050565b6200097981604051602401620008f0919062000c4c565b6040516020818303038152906040527f41304fac000000000000000000000000000000000000000000000000000000007bffffffffffffffffffffffffffffffffffffffffffffffffffffffff19166020820180517bffffffffffffffffffffffffffffffffffffffffffffffffffffffff838183161783525050505062000a4c60201b60201c565b50565b6000600760019054906101000a900473ffffffffffffffffffffffffffffffffffffffff16905090565b62000a488282604051602401620009bf92919062000c70565b6040516020818303038152906040527f319af333000000000000000000000000000000000000000000000000000000007bffffffffffffffffffffffffffffffffffffffffffffffffffffffff19166020820180517bffffffffffffffffffffffffffffffffffffffffffffffffffffffff838183161783525050505062000a4c60201b60201c565b5050565b60008151905060006a636f6e736f6c652e6c6f679050602083016000808483855afa5050505050565b82805462000a839062000d2a565b90600052602060002090601f01602090048101928262000aa7576000855562000af3565b82601f1062000ac257805160ff191683800117855562000af3565b8280016001018555821562000af3579182015b8281111562000af257825182559160200191906001019062000ad5565b5b50905062000b02919062000b6d565b5090565b82805482825590600052602060002090810192821562000b5a579160200282015b8281111562000b5957825182908051906020019062000b4892919062000a75565b509160200191906001019062000b27565b5b50905062000b69919062000b8c565b5090565b5b8082111562000b8857600081600090555060010162000b6e565b5090565b5b8082111562000bb0576000818162000ba6919062000bb4565b5060010162000b8d565b5090565b50805462000bc29062000d2a565b6000825580601f1062000bd6575062000bf7565b601f01602090049060005260206000209081019062000bf6919062000b6d565b5b50565b62000c058162000cc0565b82525050565b600062000c188262000ca4565b62000c24818562000caf565b935062000c3681856020860162000cf4565b62000c418162000d8f565b840191505092915050565b6000602082019050818103600083015262000c68818462000c0b565b905092915050565b6000604082019050818103600083015262000c8c818562000c0b565b905062000c9d602083018462000bfa565b9392505050565b600081519050919050565b600082825260208201905092915050565b600062000ccd8262000cd4565b9050919050565b600073ffffffffffffffffffffffffffffffffffffffff82169050919050565b60005b8381101562000d1457808201518184015260208101905062000cf7565b8381111562000d24576000848401525b50505050565b6000600282049050600182168062000d4357607f821691505b6020821081141562000d5a5762000d5962000d60565b5b50919050565b7f4e487b7100000000000000000000000000000000000000000000000000000000600052602260045260246000fd5b6000601f19601f8301169050919050565b6147148062000db06000396000f3fe6080604052600436106101b75760003560e01c806370a08231116100ec578063b88d4fde1161008a578063d5abeb0111610064578063d5abeb011461060c578063de9d132f14610637578063e985e9c514610641578063f2fde38b1461067e576101b7565b8063b88d4fde14610569578063c575757a14610592578063c87b56dd146105cf576101b7565b80638da5cb5b116100c65780638da5cb5b146104ad57806395d89b41146104d8578063a22cb46514610503578063b187301f1461052c576101b7565b806370a0823114610442578063715018a61461047f5780638456cb5914610496576101b7565b80633ccfd60b11610159578063514dc8c611610133578063514dc8c6146103725780635c975abb146103af5780636352211e146103da5780636817c76c14610417576101b7565b80633ccfd60b1461031b5780633f4ba83a1461033257806342842e0e14610349576101b7565b8063095ea7b311610195578063095ea7b31461026157806318160ddd1461028a57806323b872dd146102b55780632de38d68146102de576101b7565b806301ffc9a7146101bc57806306fdde03146101f9578063081812fc14610224575b600080fd5b3480156101c857600080fd5b506101e360048036038101906101de9190613056565b6106a7565b6040516101f09190613e9a565b60405180910390f35b34801561020557600080fd5b5061020e610789565b60405161021b9190613eb5565b60405180910390f35b34801561023057600080fd5b5061024b600480360381019061024691906130a8565b61081b565b6040516102589190613e0a565b60405180910390f35b34801561026d57600080fd5b506102886004803603810190610283919061301a565b6108a0565b005b34801561029657600080fd5b5061029f6109b8565b6040516102ac9190614205565b60405180910390f35b3480156102c157600080fd5b506102dc60048036038101906102d79190612f14565b6109be565b005b3480156102ea57600080fd5b50610305600480360381019061030091906130a8565b610a1e565b6040516103129190613eb5565b60405180910390f35b34801561032757600080fd5b50610330610b3c565b005b34801561033e57600080fd5b50610347610c35565b005b34801561035557600080fd5b50610370600480360381019061036b9190612f14565b610cbb565b005b34801561037e57600080fd5b50610399600480360381019061039491906130a8565b610cdb565b6040516103a69190613eb5565b60405180910390f35b3480156103bb57600080fd5b506103c4610df9565b6040516103d19190613e9a565b60405180910390f35b3480156103e657600080fd5b5061040160048036038101906103fc91906130a8565b610e10565b60405161040e9190613e0a565b60405180910390f35b34801561042357600080fd5b5061042c610ec2565b6040516104399190614205565b60405180910390f35b34801561044e57600080fd5b5061046960048036038101906104649190612eaf565b610ec8565b6040516104769190614205565b60405180910390f35b34801561048b57600080fd5b50610494610f80565b005b3480156104a257600080fd5b506104ab611008565b005b3480156104b957600080fd5b506104c261108e565b6040516104cf9190613e0a565b60405180910390f35b3480156104e457600080fd5b506104ed6110b8565b6040516104fa9190613eb5565b60405180910390f35b34801561050f57600080fd5b5061052a60048036038101906105259190612fde565b61114a565b005b34801561053857600080fd5b50610553600480360381019061054e91906130a8565b611160565b6040516105609190613eb5565b60405180910390f35b34801561057557600080fd5b50610590600480360381019061058b9190612f63565b61127e565b005b34801561059e57600080fd5b506105b960048036038101906105b491906130a8565b6112e0565b6040516105c69190613eb5565b60405180910390f35b3480156105db57600080fd5b506105f660048036038101906105f191906130a8565b6113fe565b6040516106039190613eb5565b60405180910390f35b34801561061857600080fd5b50610621611550565b60405161062e9190614205565b60405180910390f35b61063f611556565b005b34801561064d57600080fd5b5061066860048036038101906106639190612ed8565b61178a565b6040516106759190613e9a565b60405180910390f35b34801561068a57600080fd5b506106a560048036038101906106a09190612eaf565b61181e565b005b60007f80ac58cd000000000000000000000000000000000000000000000000000000007bffffffffffffffffffffffffffffffffffffffffffffffffffffffff1916827bffffffffffffffffffffffffffffffffffffffffffffffffffffffff1916148061077257507f5b5e139f000000000000000000000000000000000000000000000000000000007bffffffffffffffffffffffffffffffffffffffffffffffffffffffff1916827bffffffffffffffffffffffffffffffffffffffffffffffffffffffff1916145b80610782575061078182611a4b565b5b9050919050565b606060008054610798906144a4565b80601f01602080910402602001604051908101604052809291908181526020018280546107c4906144a4565b80156108115780601f106107e657610100808354040283529160200191610811565b820191906000526020600020905b8154815290600101906020018083116107f457829003601f168201915b5050505050905090565b600061082682611ab5565b610865576040517f08c379a000000000000000000000000000000000000000000000000000000000815260040161085c90614125565b60405180910390fd5b6004600083815260200190815260200160002060009054906101000a900473ffffffffffffffffffffffffffffffffffffffff169050919050565b60006108ab82610e10565b90508073ffffffffffffffffffffffffffffffffffffffff168373ffffffffffffffffffffffffffffffffffffffff16141561091c576040517f08c379a0000000000000000000000000000000000000000000000000000000008152600401610913906141c5565b60405180910390fd5b8073ffffffffffffffffffffffffffffffffffffffff1661093b611b21565b73ffffffffffffffffffffffffffffffffffffffff16148061096a575061096981610964611b21565b61178a565b5b6109a9576040517f08c379a00000000000000000000000000000000000000000000000000000000081526004016109a090614065565b60405180910390fd5b6109b38383611b29565b505050565b600a5481565b6109cf6109c9611b21565b82611be2565b610a0e576040517f08c379a0000000000000000000000000000000000000000000000000000000008152600401610a05906141e5565b60405180910390fd5b610a19838383611cc0565b505050565b60606000610a52610a2e84611f1c565b604051602001610a3e9190613da4565b6040516020818303038152906040526120c9565b9050600e8054905081610a65919061451f565b9050600e8181548110610aa1577f4e487b7100000000000000000000000000000000000000000000000000000000600052603260045260246000fd5b906000526020600020018054610ab6906144a4565b80601f0160208091040260200160405190810160405280929190818152602001828054610ae2906144a4565b8015610b2f5780601f10610b0457610100808354040283529160200191610b2f565b820191906000526020600020905b815481529060010190602001808311610b1257829003601f168201915b5050505050915050919050565b610b44611b21565b73ffffffffffffffffffffffffffffffffffffffff16610b6261108e565b73ffffffffffffffffffffffffffffffffffffffff1614610bb8576040517f08c379a0000000000000000000000000000000000000000000000000000000008152600401610baf90614165565b60405180910390fd5b610bc061108e565b73ffffffffffffffffffffffffffffffffffffffff166108fc479081150290604051600060405180830381858888f19350505050610c33576040517f08c379a0000000000000000000000000000000000000000000000000000000008152600401610c2a90613fc5565b60405180910390fd5b565b610c3d611b21565b73ffffffffffffffffffffffffffffffffffffffff16610c5b61108e565b73ffffffffffffffffffffffffffffffffffffffff1614610cb1576040517f08c379a0000000000000000000000000000000000000000000000000000000008152600401610ca890614165565b60405180910390fd5b610cb96120fc565b565b610cd68383836040518060200160405280600081525061127e565b505050565b60606000610d0f610ceb84611f1c565b604051602001610cfb9190613de8565b6040516020818303038152906040526120c9565b905060118054905081610d22919061451f565b905060118181548110610d5e577f4e487b7100000000000000000000000000000000000000000000000000000000600052603260045260246000fd5b906000526020600020018054610d73906144a4565b80601f0160208091040260200160405190810160405280929190818152602001828054610d9f906144a4565b8015610dec5780601f10610dc157610100808354040283529160200191610dec565b820191906000526020600020905b815481529060010190602001808311610dcf57829003601f168201915b5050505050915050919050565b6000600760009054906101000a900460ff16905090565b6000806002600084815260200190815260200160002060009054906101000a900473ffffffffffffffffffffffffffffffffffffffff169050600073ffffffffffffffffffffffffffffffffffffffff168173ffffffffffffffffffffffffffffffffffffffff161415610eb9576040517f08c379a0000000000000000000000000000000000000000000000000000000008152600401610eb0906140a5565b60405180910390fd5b80915050919050565b600b5481565b60008073ffffffffffffffffffffffffffffffffffffffff168273ffffffffffffffffffffffffffffffffffffffff161415610f39576040517f08c379a0000000000000000000000000000000000000000000000000000000008152600401610f3090614085565b60405180910390fd5b600360008373ffffffffffffffffffffffffffffffffffffffff1673ffffffffffffffffffffffffffffffffffffffff168152602001908152602001600020549050919050565b610f88611b21565b73ffffffffffffffffffffffffffffffffffffffff16610fa661108e565b73ffffffffffffffffffffffffffffffffffffffff1614610ffc576040517f08c379a0000000000000000000000000000000000000000000000000000000008152600401610ff390614165565b60405180910390fd5b611006600061219e565b565b611010611b21565b73ffffffffffffffffffffffffffffffffffffffff1661102e61108e565b73ffffffffffffffffffffffffffffffffffffffff1614611084576040517f08c379a000000000000000000000000000000000000000000000000000000000815260040161107b90614165565b60405180910390fd5b61108c612264565b565b6000600760019054906101000a900473ffffffffffffffffffffffffffffffffffffffff16905090565b6060600180546110c7906144a4565b80601f01602080910402602001604051908101604052809291908181526020018280546110f3906144a4565b80156111405780601f1061111557610100808354040283529160200191611140565b820191906000526020600020905b81548152906001019060200180831161112357829003601f168201915b5050505050905090565b61115c611155611b21565b8383612307565b5050565b6060600061119461117084611f1c565b6040516020016111809190613d3d565b6040516020818303038152906040526120c9565b9050600f80549050816111a7919061451f565b9050600f81815481106111e3577f4e487b7100000000000000000000000000000000000000000000000000000000600052603260045260246000fd5b9060005260206000200180546111f8906144a4565b80601f0160208091040260200160405190810160405280929190818152602001828054611224906144a4565b80156112715780601f1061124657610100808354040283529160200191611271565b820191906000526020600020905b81548152906001019060200180831161125457829003601f168201915b5050505050915050919050565b61128f611289611b21565b83611be2565b6112ce576040517f08c379a00000000000000000000000000000000000000000000000000000000081526004016112c5906141e5565b60405180910390fd5b6112da84848484612474565b50505050565b606060006113146112f084611f1c565b6040516020016113009190613d1b565b6040516020818303038152906040526120c9565b905060108054905081611327919061451f565b905060108181548110611363577f4e487b7100000000000000000000000000000000000000000000000000000000600052603260045260246000fd5b906000526020600020018054611378906144a4565b80601f01602080910402602001604051908101604052809291908181526020018280546113a4906144a4565b80156113f15780601f106113c6576101008083540402835291602001916113f1565b820191906000526020600020905b8154815290600101906020018083116113d457829003601f168201915b5050505050915050919050565b606061140982611ab5565b611448576040517f08c379a000000000000000000000000000000000000000000000000000000000815260040161143f90614105565b60405180910390fd5b6000600660008481526020019081526020016000208054611468906144a4565b80601f0160208091040260200160405190810160405280929190818152602001828054611494906144a4565b80156114e15780601f106114b6576101008083540402835291602001916114e1565b820191906000526020600020905b8154815290600101906020018083116114c457829003601f168201915b5050505050905060006114f26124d0565b905060008151141561150857819250505061154b565b60008251111561153d578082604051602001611525929190613c7d565b6040516020818303038152906040529250505061154b565b611546846124e7565b925050505b919050565b60095481565b61155e610df9565b1561159e576040517f08c379a000000000000000000000000000000000000000000000000000000000815260040161159590614045565b60405180910390fd5b600954600a54106115ae57600080fd5b600b5434146115f2576040517f08c379a00000000000000000000000000000000000000000000000000000000081526004016115e990614145565b60405180910390fd5b6115fb3461258e565b60006116076008612627565b9050600061161482610a1e565b9050600061162183611160565b9050600061162e846112e0565b9050600083838360405160200161164793929190613ca1565b6040516020818303038152906040529050600061166386610cdb565b90506000600c82600d856040516020016116809493929190613cd2565b604051602081830303815290604052905060006116c5846116a084612635565b6040516020016116b1929190613d5f565b604051602081830303815290604052612635565b90506000816040516020016116da9190613dc6565b60405160208183030381529060405290506116f5338a6127f3565b6116ff8982612811565b6117096008612885565b6001600a600082825461171c91906142d9565b9250508190555061174660405180606001604052806025815260200161467a602591398a3361289b565b7febb98688741ffa4c7589bf325de30cf7becb63de567842e1ccdb6cb949fdc82c338a604051611777929190613e71565b60405180910390a1505050505050505050565b6000600560008473ffffffffffffffffffffffffffffffffffffffff1673ffffffffffffffffffffffffffffffffffffffff16815260200190815260200160002060008373ffffffffffffffffffffffffffffffffffffffff1673ffffffffffffffffffffffffffffffffffffffff16815260200190815260200160002060009054906101000a900460ff16905092915050565b611826611b21565b73ffffffffffffffffffffffffffffffffffffffff1661184461108e565b73ffffffffffffffffffffffffffffffffffffffff161461189a576040517f08c379a000000000000000000000000000000000000000000000000000000000815260040161189190614165565b60405180910390fd5b600073ffffffffffffffffffffffffffffffffffffffff168173ffffffffffffffffffffffffffffffffffffffff16141561190a576040517f08c379a000000000000000000000000000000000000000000000000000000000815260040161190190613f85565b60405180910390fd5b6119138161219e565b50565b6119ac8160405160240161192a9190613eb5565b6040516020818303038152906040527f41304fac000000000000000000000000000000000000000000000000000000007bffffffffffffffffffffffffffffffffffffffffffffffffffffffff19166020820180517bffffffffffffffffffffffffffffffffffffffffffffffffffffffff838183161783525050505061293a565b50565b611a4782826040516024016119c5929190613ed7565b6040516020818303038152906040527f319af333000000000000000000000000000000000000000000000000000000007bffffffffffffffffffffffffffffffffffffffffffffffffffffffff19166020820180517bffffffffffffffffffffffffffffffffffffffffffffffffffffffff838183161783525050505061293a565b5050565b60007f01ffc9a7000000000000000000000000000000000000000000000000000000007bffffffffffffffffffffffffffffffffffffffffffffffffffffffff1916827bffffffffffffffffffffffffffffffffffffffffffffffffffffffff1916149050919050565b60008073ffffffffffffffffffffffffffffffffffffffff166002600084815260200190815260200160002060009054906101000a900473ffffffffffffffffffffffffffffffffffffffff1673ffffffffffffffffffffffffffffffffffffffff1614159050919050565b600033905090565b816004600083815260200190815260200160002060006101000a81548173ffffffffffffffffffffffffffffffffffffffff021916908373ffffffffffffffffffffffffffffffffffffffff160217905550808273ffffffffffffffffffffffffffffffffffffffff16611b9c83610e10565b73ffffffffffffffffffffffffffffffffffffffff167f8c5be1e5ebec7d5bd14f71427d1e84f3dd0314c0f7b2291e5b200ac8c7c3b92560405160405180910390a45050565b6000611bed82611ab5565b611c2c576040517f08c379a0000000000000000000000000000000000000000000000000000000008152600401611c2390614025565b60405180910390fd5b6000611c3783610e10565b90508073ffffffffffffffffffffffffffffffffffffffff168473ffffffffffffffffffffffffffffffffffffffff161480611ca657508373ffffffffffffffffffffffffffffffffffffffff16611c8e8461081b565b73ffffffffffffffffffffffffffffffffffffffff16145b80611cb75750611cb6818561178a565b5b91505092915050565b8273ffffffffffffffffffffffffffffffffffffffff16611ce082610e10565b73ffffffffffffffffffffffffffffffffffffffff1614611d36576040517f08c379a0000000000000000000000000000000000000000000000000000000008152600401611d2d90614185565b60405180910390fd5b600073ffffffffffffffffffffffffffffffffffffffff168273ffffffffffffffffffffffffffffffffffffffff161415611da6576040517f08c379a0000000000000000000000000000000000000000000000000000000008152600401611d9d90613fe5565b60405180910390fd5b611db1838383612963565b611dbc600082611b29565b6001600360008573ffffffffffffffffffffffffffffffffffffffff1673ffffffffffffffffffffffffffffffffffffffff1681526020019081526020016000206000828254611e0c91906143ba565b925050819055506001600360008473ffffffffffffffffffffffffffffffffffffffff1673ffffffffffffffffffffffffffffffffffffffff1681526020019081526020016000206000828254611e6391906142d9565b92505081905550816002600083815260200190815260200160002060006101000a81548173ffffffffffffffffffffffffffffffffffffffff021916908373ffffffffffffffffffffffffffffffffffffffff160217905550808273ffffffffffffffffffffffffffffffffffffffff168473ffffffffffffffffffffffffffffffffffffffff167fddf252ad1be2c89b69c2b068fc378daa952ba7f163c4a11628f55a4df523b3ef60405160405180910390a4505050565b60606000821415611f64576040518060400160405280600181526020017f300000000000000000000000000000000000000000000000000000000000000081525090506120c4565b600082905060005b60008214611f96578080611f7f906144d6565b915050600a82611f8f919061432f565b9150611f6c565b60008167ffffffffffffffff811115611fd8577f4e487b7100000000000000000000000000000000000000000000000000000000600052604160045260246000fd5b6040519080825280601f01601f19166020018201604052801561200a5781602001600182028036833780820191505090505b5090505b600085146120bd5760018261202391906143ba565b9150600a85612032919061451f565b603061203e91906142d9565b60f81b81838151811061207a577f4e487b7100000000000000000000000000000000000000000000000000000000600052603260045260246000fd5b60200101907effffffffffffffffffffffffffffffffffffffffffffffffffffffffffffff1916908160001a905350600a856120b6919061432f565b945061200e565b8093505050505b919050565b6000816040516020016120dc9190613c66565b6040516020818303038152906040528051906020012060001c9050919050565b612104610df9565b612143576040517f08c379a000000000000000000000000000000000000000000000000000000000815260040161213a90613f45565b60405180910390fd5b6000600760006101000a81548160ff0219169083151502179055507f5db9ee0a495bf2e6ff9c91a7834c1ba4fdd244a5e8aa4e537bd38aeae4b073aa612187611b21565b6040516121949190613e0a565b60405180910390a1565b6000600760019054906101000a900473ffffffffffffffffffffffffffffffffffffffff16905081600760016101000a81548173ffffffffffffffffffffffffffffffffffffffff021916908373ffffffffffffffffffffffffffffffffffffffff1602179055508173ffffffffffffffffffffffffffffffffffffffff168173ffffffffffffffffffffffffffffffffffffffff167f8be0079c531659141344cd1fd0a4f28419497f9722a3daafe3b4186f6b6457e060405160405180910390a35050565b61226c610df9565b156122ac576040517f08c379a00000000000000000000000000000000000000000000000000000000081526004016122a390614045565b60405180910390fd5b6001600760006101000a81548160ff0219169083151502179055507f62e78cea01bee320cd4e420270b5ea74000d11b0c9f74754ebdbfc544b05a2586122f0611b21565b6040516122fd9190613e0a565b60405180910390a1565b8173ffffffffffffffffffffffffffffffffffffffff168373ffffffffffffffffffffffffffffffffffffffff161415612376576040517f08c379a000000000000000000000000000000000000000000000000000000000815260040161236d90614005565b60405180910390fd5b80600560008573ffffffffffffffffffffffffffffffffffffffff1673ffffffffffffffffffffffffffffffffffffffff16815260200190815260200160002060008473ffffffffffffffffffffffffffffffffffffffff1673ffffffffffffffffffffffffffffffffffffffff16815260200190815260200160002060006101000a81548160ff0219169083151502179055508173ffffffffffffffffffffffffffffffffffffffff168373ffffffffffffffffffffffffffffffffffffffff167f17307eab39ab6107e8899845ad3d59bd9653f200f220920489ca2b5937696c31836040516124679190613e9a565b60405180910390a3505050565b61247f848484611cc0565b61248b84848484612968565b6124ca576040517f08c379a00000000000000000000000000000000000000000000000000000000081526004016124c190613f65565b60405180910390fd5b50505050565b606060405180602001604052806000815250905090565b60606124f282611ab5565b612531576040517f08c379a0000000000000000000000000000000000000000000000000000000008152600401612528906141a5565b60405180910390fd5b600061253b6124d0565b9050600081511161255b5760405180602001604052806000815250612586565b8061256584611f1c565b604051602001612576929190613c7d565b6040516020818303038152906040525b915050919050565b612624816040516024016125a29190614205565b6040516020818303038152906040527ff5b1bba9000000000000000000000000000000000000000000000000000000007bffffffffffffffffffffffffffffffffffffffffffffffffffffffff19166020820180517bffffffffffffffffffffffffffffffffffffffffffffffffffffffff838183161783525050505061293a565b50565b600081600001549050919050565b6060600082519050600081141561265e57604051806020016040528060008152509150506127ee565b6000600360028361266f91906142d9565b612679919061432f565b60046126859190614360565b9050600060208261269691906142d9565b67ffffffffffffffff8111156126d5577f4e487b7100000000000000000000000000000000000000000000000000000000600052604160045260246000fd5b6040519080825280601f01601f1916602001820160405280156127075781602001600182028036833780820191505090505b509050600060405180606001604052806040815260200161469f604091399050600181016020830160005b868110156127ab5760038101905062ffffff818a015116603f8160121c168401518060081b905060ff603f83600c1c1686015116810190508060081b905060ff603f8360061c1686015116810190508060081b905060ff603f831686015116810190508060e01b90508084526004840193505050612732565b5060038606600181146127c557600281146127d5576127e0565b613d3d60f01b60028303526127e0565b603d60f81b60018303525b508484525050819450505050505b919050565b61280d828260405180602001604052806000815250612aff565b5050565b61281a82611ab5565b612859576040517f08c379a0000000000000000000000000000000000000000000000000000000008152600401612850906140c5565b60405180910390fd5b80600660008481526020019081526020016000209080519060200190612880929190612d3b565b505050565b6001816000016000828254019250508190555050565b6129358383836040516024016128b393929190613f07565b6040516020818303038152906040527fe3849f79000000000000000000000000000000000000000000000000000000007bffffffffffffffffffffffffffffffffffffffffffffffffffffffff19166020820180517bffffffffffffffffffffffffffffffffffffffffffffffffffffffff838183161783525050505061293a565b505050565b60008151905060006a636f6e736f6c652e6c6f679050602083016000808483855afa5050505050565b505050565b60006129898473ffffffffffffffffffffffffffffffffffffffff16612b5a565b15612af2578373ffffffffffffffffffffffffffffffffffffffff1663150b7a026129b2611b21565b8786866040518563ffffffff1660e01b81526004016129d49493929190613e25565b602060405180830381600087803b1580156129ee57600080fd5b505af1925050508015612a1f57506040513d601f19601f82011682018060405250810190612a1c919061307f565b60015b612aa2573d8060008114612a4f576040519150601f19603f3d011682016040523d82523d6000602084013e612a54565b606091505b50600081511415612a9a576040517f08c379a0000000000000000000000000000000000000000000000000000000008152600401612a9190613f65565b60405180910390fd5b805181602001fd5b63150b7a0260e01b7bffffffffffffffffffffffffffffffffffffffffffffffffffffffff1916817bffffffffffffffffffffffffffffffffffffffffffffffffffffffff191614915050612af7565b600190505b949350505050565b612b098383612b6d565b612b166000848484612968565b612b55576040517f08c379a0000000000000000000000000000000000000000000000000000000008152600401612b4c90613f65565b60405180910390fd5b505050565b600080823b905060008111915050919050565b600073ffffffffffffffffffffffffffffffffffffffff168273ffffffffffffffffffffffffffffffffffffffff161415612bdd576040517f08c379a0000000000000000000000000000000000000000000000000000000008152600401612bd4906140e5565b60405180910390fd5b612be681611ab5565b15612c26576040517f08c379a0000000000000000000000000000000000000000000000000000000008152600401612c1d90613fa5565b60405180910390fd5b612c3260008383612963565b6001600360008473ffffffffffffffffffffffffffffffffffffffff1673ffffffffffffffffffffffffffffffffffffffff1681526020019081526020016000206000828254612c8291906142d9565b92505081905550816002600083815260200190815260200160002060006101000a81548173ffffffffffffffffffffffffffffffffffffffff021916908373ffffffffffffffffffffffffffffffffffffffff160217905550808273ffffffffffffffffffffffffffffffffffffffff16600073ffffffffffffffffffffffffffffffffffffffff167fddf252ad1be2c89b69c2b068fc378daa952ba7f163c4a11628f55a4df523b3ef60405160405180910390a45050565b828054612d47906144a4565b90600052602060002090601f016020900481019282612d695760008555612db0565b82601f10612d8257805160ff1916838001178555612db0565b82800160010185558215612db0579182015b82811115612daf578251825591602001919060010190612d94565b5b509050612dbd9190612dc1565b5090565b5b80821115612dda576000816000905550600101612dc2565b5090565b6000612df1612dec84614251565b614220565b905082815260208101848484011115612e0957600080fd5b612e14848285614462565b509392505050565b600081359050612e2b8161461d565b92915050565b600081359050612e4081614634565b92915050565b600081359050612e558161464b565b92915050565b600081519050612e6a8161464b565b92915050565b600082601f830112612e8157600080fd5b8135612e91848260208601612dde565b91505092915050565b600081359050612ea981614662565b92915050565b600060208284031215612ec157600080fd5b6000612ecf84828501612e1c565b91505092915050565b60008060408385031215612eeb57600080fd5b6000612ef985828601612e1c565b9250506020612f0a85828601612e1c565b9150509250929050565b600080600060608486031215612f2957600080fd5b6000612f3786828701612e1c565b9350506020612f4886828701612e1c565b9250506040612f5986828701612e9a565b9150509250925092565b60008060008060808587031215612f7957600080fd5b6000612f8787828801612e1c565b9450506020612f9887828801612e1c565b9350506040612fa987828801612e9a565b925050606085013567ffffffffffffffff811115612fc657600080fd5b612fd287828801612e70565b91505092959194509250565b60008060408385031215612ff157600080fd5b6000612fff85828601612e1c565b925050602061301085828601612e31565b9150509250929050565b6000806040838503121561302d57600080fd5b600061303b85828601612e1c565b925050602061304c85828601612e9a565b9150509250929050565b60006020828403121561306857600080fd5b600061307684828501612e46565b91505092915050565b60006020828403121561309157600080fd5b600061309f84828501612e5b565b91505092915050565b6000602082840312156130ba57600080fd5b60006130c884828501612e9a565b91505092915050565b6130da816143ee565b82525050565b6130e981614400565b82525050565b60006130fa82614296565b61310481856142ac565b9350613114818560208601614471565b61311d8161460c565b840191505092915050565b6000613133826142a1565b61313d81856142bd565b935061314d818560208601614471565b6131568161460c565b840191505092915050565b600061316c826142a1565b61317681856142ce565b9350613186818560208601614471565b80840191505092915050565b6000815461319f816144a4565b6131a981866142ce565b945060018216600081146131c457600181146131d557613208565b60ff19831686528186019350613208565b6131de85614281565b60005b83811015613200578154818901526001820191506020810190506131e1565b838801955050505b50505092915050565b600061321e6014836142bd565b91507f5061757361626c653a206e6f74207061757365640000000000000000000000006000830152602082019050919050565b600061325e6032836142bd565b91507f4552433732313a207472616e7366657220746f206e6f6e20455243373231526560008301527f63656976657220696d706c656d656e74657200000000000000000000000000006020830152604082019050919050565b60006132c46026836142bd565b91507f4f776e61626c653a206e6577206f776e657220697320746865207a65726f206160008301527f64647265737300000000000000000000000000000000000000000000000000006020830152604082019050919050565b600061332a601c836142bd565b91507f4552433732313a20746f6b656e20616c7265616479206d696e746564000000006000830152602082019050919050565b600061336a600f836142bd565b91507f5769746864726177206661696c656400000000000000000000000000000000006000830152602082019050919050565b60006133aa600a836142ce565b91507f54484952445f574f5244000000000000000000000000000000000000000000006000830152600a82019050919050565b60006133ea6024836142bd565b91507f4552433732313a207472616e7366657220746f20746865207a65726f2061646460008301527f72657373000000000000000000000000000000000000000000000000000000006020830152604082019050919050565b60006134506019836142bd565b91507f4552433732313a20617070726f766520746f2063616c6c6572000000000000006000830152602082019050919050565b60006134906063836142ce565b91507f222c20226465736372697074696f6e223a20224120686967686c79206163636c60008301527f61696d656420636f6c6c656374696f6e206f6620737175617265732e222c202260208301527f696d616765223a2022646174613a696d6167652f7376672b786d6c3b6261736560408301527f36342c00000000000000000000000000000000000000000000000000000000006060830152606382019050919050565b6000613542600b836142ce565b91507f5345434f4e445f574f52440000000000000000000000000000000000000000006000830152600b82019050919050565b6000613582602c836142bd565b91507f4552433732313a206f70657261746f7220717565727920666f72206e6f6e657860008301527f697374656e7420746f6b656e00000000000000000000000000000000000000006020830152604082019050919050565b60006135e8600d836142ce565b91507f3c2f746578743e3c2f7376673e000000000000000000000000000000000000006000830152600d82019050919050565b60006136286010836142bd565b91507f5061757361626c653a20706175736564000000000000000000000000000000006000830152602082019050919050565b60006136686038836142bd565b91507f4552433732313a20617070726f76652063616c6c6572206973206e6f74206f7760008301527f6e6572206e6f7220617070726f76656420666f7220616c6c00000000000000006020830152604082019050919050565b60006136ce602a836142bd565b91507f4552433732313a2062616c616e636520717565727920666f7220746865207a6560008301527f726f2061646472657373000000000000000000000000000000000000000000006020830152604082019050919050565b60006137346029836142bd565b91507f4552433732313a206f776e657220717565727920666f72206e6f6e657869737460008301527f656e7420746f6b656e00000000000000000000000000000000000000000000006020830152604082019050919050565b600061379a602e836142bd565b91507f45524337323155524953746f726167653a2055524920736574206f66206e6f6e60008301527f6578697374656e7420746f6b656e0000000000000000000000000000000000006020830152604082019050919050565b60006138006002836142ce565b91507f227d0000000000000000000000000000000000000000000000000000000000006000830152600282019050919050565b60006138406020836142bd565b91507f4552433732313a206d696e7420746f20746865207a65726f20616464726573736000830152602082019050919050565b60006138806031836142bd565b91507f45524337323155524953746f726167653a2055524920717565727920666f722060008301527f6e6f6e6578697374656e7420746f6b656e0000000000000000000000000000006020830152604082019050919050565b60006138e6602c836142bd565b91507f4552433732313a20617070726f76656420717565727920666f72206e6f6e657860008301527f697374656e7420746f6b656e00000000000000000000000000000000000000006020830152604082019050919050565b600061394c6017836142bd565b91507f4d696e7420707269636520697320302e303031204554480000000000000000006000830152602082019050919050565b600061398c6020836142bd565b91507f4f776e61626c653a2063616c6c6572206973206e6f7420746865206f776e65726000830152602082019050919050565b60006139cc6029836142bd565b91507f4552433732313a207472616e73666572206f6620746f6b656e2074686174206960008301527f73206e6f74206f776e00000000000000000000000000000000000000000000006020830152604082019050919050565b6000613a32602f836142bd565b91507f4552433732314d657461646174613a2055524920717565727920666f72206e6f60008301527f6e6578697374656e7420746f6b656e00000000000000000000000000000000006020830152604082019050919050565b6000613a98600a836142ce565b91507f7b226e616d65223a2022000000000000000000000000000000000000000000006000830152600a82019050919050565b6000613ad86021836142bd565b91507f4552433732313a20617070726f76616c20746f2063757272656e74206f776e6560008301527f72000000000000000000000000000000000000000000000000000000000000006020830152604082019050919050565b6000613b3e600a836142ce565b91507f46495253545f574f5244000000000000000000000000000000000000000000006000830152600a82019050919050565b6000613b7e601d836142ce565b91507f646174613a6170706c69636174696f6e2f6a736f6e3b6261736536342c0000006000830152601d82019050919050565b6000613bbe6031836142bd565b91507f4552433732313a207472616e736665722063616c6c6572206973206e6f74206f60008301527f776e6572206e6f7220617070726f7665640000000000000000000000000000006020830152604082019050919050565b6000613c246005836142ce565b91507f434f4c4f520000000000000000000000000000000000000000000000000000006000830152600582019050919050565b613c6081614458565b82525050565b6000613c728284613161565b915081905092915050565b6000613c898285613161565b9150613c958284613161565b91508190509392505050565b6000613cad8286613161565b9150613cb98285613161565b9150613cc58284613161565b9150819050949350505050565b6000613cde8287613192565b9150613cea8286613161565b9150613cf68285613192565b9150613d028284613161565b9150613d0d826135db565b915081905095945050505050565b6000613d268261339d565b9150613d328284613161565b915081905092915050565b6000613d4882613535565b9150613d548284613161565b915081905092915050565b6000613d6a82613a8b565b9150613d768285613161565b9150613d8182613483565b9150613d8d8284613161565b9150613d98826137f3565b91508190509392505050565b6000613daf82613b31565b9150613dbb8284613161565b915081905092915050565b6000613dd182613b71565b9150613ddd8284613161565b915081905092915050565b6000613df382613c17565b9150613dff8284613161565b915081905092915050565b6000602082019050613e1f60008301846130d1565b92915050565b6000608082019050613e3a60008301876130d1565b613e4760208301866130d1565b613e546040830185613c57565b8181036060830152613e6681846130ef565b905095945050505050565b6000604082019050613e8660008301856130d1565b613e936020830184613c57565b9392505050565b6000602082019050613eaf60008301846130e0565b92915050565b60006020820190508181036000830152613ecf8184613128565b905092915050565b60006040820190508181036000830152613ef18185613128565b9050613f0060208301846130d1565b9392505050565b60006060820190508181036000830152613f218186613128565b9050613f306020830185613c57565b613f3d60408301846130d1565b949350505050565b60006020820190508181036000830152613f5e81613211565b9050919050565b60006020820190508181036000830152613f7e81613251565b9050919050565b60006020820190508181036000830152613f9e816132b7565b9050919050565b60006020820190508181036000830152613fbe8161331d565b9050919050565b60006020820190508181036000830152613fde8161335d565b9050919050565b60006020820190508181036000830152613ffe816133dd565b9050919050565b6000602082019050818103600083015261401e81613443565b9050919050565b6000602082019050818103600083015261403e81613575565b9050919050565b6000602082019050818103600083015261405e8161361b565b9050919050565b6000602082019050818103600083015261407e8161365b565b9050919050565b6000602082019050818103600083015261409e816136c1565b9050919050565b600060208201905081810360008301526140be81613727565b9050919050565b600060208201905081810360008301526140de8161378d565b9050919050565b600060208201905081810360008301526140fe81613833565b9050919050565b6000602082019050818103600083015261411e81613873565b9050919050565b6000602082019050818103600083015261413e816138d9565b9050919050565b6000602082019050818103600083015261415e8161393f565b9050919050565b6000602082019050818103600083015261417e8161397f565b9050919050565b6000602082019050818103600083015261419e816139bf565b9050919050565b600060208201905081810360008301526141be81613a25565b9050919050565b600060208201905081810360008301526141de81613acb565b9050919050565b600060208201905081810360008301526141fe81613bb1565b9050919050565b600060208201905061421a6000830184613c57565b92915050565b6000604051905081810181811067ffffffffffffffff82111715614247576142466145dd565b5b8060405250919050565b600067ffffffffffffffff82111561426c5761426b6145dd565b5b601f19601f8301169050602081019050919050565b60008190508160005260206000209050919050565b600081519050919050565b600081519050919050565b600082825260208201905092915050565b600082825260208201905092915050565b600081905092915050565b60006142e482614458565b91506142ef83614458565b9250827fffffffffffffffffffffffffffffffffffffffffffffffffffffffffffffffff0382111561432457614323614550565b5b828201905092915050565b600061433a82614458565b915061434583614458565b9250826143555761435461457f565b5b828204905092915050565b600061436b82614458565b915061437683614458565b9250817fffffffffffffffffffffffffffffffffffffffffffffffffffffffffffffffff04831182151516156143af576143ae614550565b5b828202905092915050565b60006143c582614458565b91506143d083614458565b9250828210156143e3576143e2614550565b5b828203905092915050565b60006143f982614438565b9050919050565b60008115159050919050565b60007fffffffff0000000000000000000000000000000000000000000000000000000082169050919050565b600073ffffffffffffffffffffffffffffffffffffffff82169050919050565b6000819050919050565b82818337600083830152505050565b60005b8381101561448f578082015181840152602081019050614474565b8381111561449e576000848401525b50505050565b600060028204905060018216806144bc57607f821691505b602082108114156144d0576144cf6145ae565b5b50919050565b60006144e182614458565b91507fffffffffffffffffffffffffffffffffffffffffffffffffffffffffffffffff82141561451457614513614550565b5b600182019050919050565b600061452a82614458565b915061453583614458565b9250826145455761454461457f565b5b828206905092915050565b7f4e487b7100000000000000000000000000000000000000000000000000000000600052601160045260246000fd5b7f4e487b7100000000000000000000000000000000000000000000000000000000600052601260045260246000fd5b7f4e487b7100000000000000000000000000000000000000000000000000000000600052602260045260246000fd5b7f4e487b7100000000000000000000000000000000000000000000000000000000600052604160045260246000fd5b6000601f19601f8301169050919050565b614626816143ee565b811461463157600080fd5b50565b61463d81614400565b811461464857600080fd5b50565b6146548161440c565b811461465f57600080fd5b50565b61466b81614458565b811461467657600080fd5b5056fe416e204e465420772f20494420257320686173206265656e206d696e74656420746f2025734142434445464748494a4b4c4d4e4f505152535455565758595a6162636465666768696a6b6c6d6e6f707172737475767778797a303132333435363738392b2fa2646970667358221220098c1302c81cd74c69935b0a5ad7c8f3a8606e53f10cd5b091266711f748e83864736f6c634300080000333c73766720786d6c6e733d27687474703a2f2f7777772e77332e6f72672f323030302f73766727207072657365727665417370656374526174696f3d27784d696e594d696e206d656574272076696577426f783d273020302033353020333530273e3c7374796c653e2e62617365207b2066696c6c3a2077686974653b20666f6e742d66616d696c793a2073657269663b20666f6e742d73697a653a20323470783b207d3c2f7374796c653e3c726563742077696474683d273130302527206865696768743d2731303025272066696c6c3d27272f3e3c7465787420783d273530252720793d273530252720636c6173733d27626173652720646f6d696e616e742d626173656c696e653d276d6964646c652720746578742d616e63686f723d276d6964646c65273e",
  "linkReferences": {},
  "deployedLinkReferences": {}
}